{
  "_format": "hh-sol-artifact-1",
  "contractName": "KYC",
  "sourceName": "contracts/KYC.sol",
  "abi": [
    {
      "anonymous": false,
      "inputs": [
        {
          "indexed": true,
          "internalType": "address",
          "name": "bank",
          "type": "address"
        },
        {
          "indexed": false,
          "internalType": "string",
          "name": "name",
          "type": "string"
        }
      ],
      "name": "BankRegistered",
      "type": "event"
    },
    {
      "anonymous": false,
      "inputs": [
        {
          "indexed": true,
          "internalType": "address",
          "name": "customer",
          "type": "address"
        },
        {
          "indexed": false,
          "internalType": "string",
          "name": "name",
          "type": "string"
        }
      ],
      "name": "CustomerRegistered",
      "type": "event"
    },
    {
      "anonymous": false,
      "inputs": [
        {
          "indexed": true,
          "internalType": "uint256",
          "name": "requestId",
          "type": "uint256"
        },
        {
          "indexed": true,
          "internalType": "address",
          "name": "customer",
          "type": "address"
        }
      ],
      "name": "KYCAccepted",
      "type": "event"
    },
    {
      "anonymous": false,
      "inputs": [
        {
          "indexed": true,
          "internalType": "uint256",
          "name": "requestId",
          "type": "uint256"
        },
        {
          "indexed": true,
          "internalType": "address",
          "name": "bank",
          "type": "address"
        },
        {
          "indexed": true,
          "internalType": "address",
          "name": "customer",
          "type": "address"
        }
      ],
      "name": "KYCInitiated",
      "type": "event"
    },
    {
      "anonymous": false,
      "inputs": [
        {
          "indexed": true,
          "internalType": "uint256",
          "name": "requestId",
          "type": "uint256"
        },
        {
          "indexed": true,
          "internalType": "address",
          "name": "bank",
          "type": "address"
        }
      ],
      "name": "KYCRejected",
      "type": "event"
    },
    {
      "anonymous": false,
      "inputs": [
        {
          "indexed": true,
          "internalType": "uint256",
          "name": "requestId",
          "type": "uint256"
        },
        {
          "indexed": true,
          "internalType": "address",
          "name": "customer",
          "type": "address"
        }
      ],
      "name": "KYCReopened",
      "type": "event"
    },
    {
      "anonymous": false,
      "inputs": [
        {
          "indexed": true,
          "internalType": "uint256",
          "name": "requestId",
          "type": "uint256"
        },
        {
          "indexed": true,
          "internalType": "address",
          "name": "customer",
          "type": "address"
        },
        {
          "indexed": false,
          "internalType": "string",
          "name": "documentHash",
          "type": "string"
        }
      ],
      "name": "KYCSubmitted",
      "type": "event"
    },
    {
      "anonymous": false,
      "inputs": [
        {
          "indexed": true,
          "internalType": "uint256",
          "name": "requestId",
          "type": "uint256"
        },
        {
          "indexed": true,
          "internalType": "address",
          "name": "bank",
          "type": "address"
        }
      ],
      "name": "KYCVerified",
      "type": "event"
    },
    {
      "inputs": [
        {
          "internalType": "uint256",
          "name": "_requestId",
          "type": "uint256"
        }
      ],
      "name": "acceptRequest",
      "outputs": [],
      "stateMutability": "nonpayable",
      "type": "function"
    },
    {
      "inputs": [
        {
          "internalType": "address",
          "name": "",
          "type": "address"
        }
      ],
      "name": "bankNames",
      "outputs": [
        {
          "internalType": "string",
          "name": "",
          "type": "string"
        }
      ],
      "stateMutability": "view",
      "type": "function"
    },
    {
      "inputs": [
        {
          "internalType": "address",
          "name": "",
          "type": "address"
        },
        {
          "internalType": "uint256",
          "name": "",
          "type": "uint256"
        }
      ],
      "name": "bankRequests",
      "outputs": [
        {
          "internalType": "uint256",
          "name": "",
          "type": "uint256"
        }
      ],
      "stateMutability": "view",
      "type": "function"
    },
    {
      "inputs": [
        {
          "internalType": "address",
          "name": "",
          "type": "address"
        }
      ],
      "name": "customerNames",
      "outputs": [
        {
          "internalType": "string",
          "name": "",
          "type": "string"
        }
      ],
      "stateMutability": "view",
      "type": "function"
    },
    {
      "inputs": [
        {
          "internalType": "address",
          "name": "",
          "type": "address"
        },
        {
          "internalType": "uint256",
          "name": "",
          "type": "uint256"
        }
      ],
      "name": "customerRequests",
      "outputs": [
        {
          "internalType": "uint256",
          "name": "",
          "type": "uint256"
        }
      ],
      "stateMutability": "view",
      "type": "function"
    },
    {
      "inputs": [],
      "name": "getAllBanks",
      "outputs": [
        {
          "internalType": "address[]",
          "name": "",
          "type": "address[]"
        },
        {
          "internalType": "string[]",
          "name": "",
          "type": "string[]"
        }
      ],
      "stateMutability": "view",
      "type": "function"
    },
    {
      "inputs": [],
      "name": "getAllCustomers",
      "outputs": [
        {
          "internalType": "address[]",
          "name": "",
          "type": "address[]"
        },
        {
          "internalType": "string[]",
          "name": "",
          "type": "string[]"
        }
      ],
      "stateMutability": "view",
      "type": "function"
    },
    {
      "inputs": [
        {
          "internalType": "address",
          "name": "_bank",
          "type": "address"
        }
      ],
      "name": "getBankRequestIds",
      "outputs": [
        {
          "internalType": "uint256[]",
          "name": "",
          "type": "uint256[]"
        }
      ],
      "stateMutability": "view",
      "type": "function"
    },
    {
      "inputs": [
        {
          "internalType": "address",
          "name": "_customer",
          "type": "address"
        }
      ],
      "name": "getCustomerRequestIds",
      "outputs": [
        {
          "internalType": "uint256[]",
          "name": "",
          "type": "uint256[]"
        }
      ],
      "stateMutability": "view",
      "type": "function"
    },
    {
      "inputs": [
        {
          "internalType": "uint256",
          "name": "_id",
          "type": "uint256"
        }
      ],
      "name": "getRequest",
      "outputs": [
        {
          "components": [
            {
              "internalType": "address",
              "name": "bank",
              "type": "address"
            },
            {
              "internalType": "address",
              "name": "customer",
              "type": "address"
            },
            {
              "internalType": "enum KYC.Status",
              "name": "status",
              "type": "uint8"
            },
            {
              "internalType": "string",
              "name": "documentHash",
              "type": "string"
            },
            {
              "internalType": "uint256",
              "name": "createdAt",
              "type": "uint256"
            },
            {
              "internalType": "uint256",
              "name": "updatedAt",
              "type": "uint256"
            }
          ],
          "internalType": "struct KYC.KYCRequest",
          "name": "",
          "type": "tuple"
        }
      ],
      "stateMutability": "view",
      "type": "function"
    },
    {
      "inputs": [
        {
          "internalType": "address",
          "name": "_customer",
          "type": "address"
        }
      ],
      "name": "initiateKYC",
      "outputs": [
        {
          "internalType": "uint256",
          "name": "",
          "type": "uint256"
        }
      ],
      "stateMutability": "nonpayable",
      "type": "function"
    },
    {
      "inputs": [
        {
          "internalType": "address",
          "name": "",
          "type": "address"
        }
      ],
      "name": "isBank",
      "outputs": [
        {
          "internalType": "bool",
          "name": "",
          "type": "bool"
        }
      ],
      "stateMutability": "view",
      "type": "function"
    },
    {
      "inputs": [
        {
          "internalType": "address",
          "name": "",
          "type": "address"
        }
      ],
      "name": "isCustomer",
      "outputs": [
        {
          "internalType": "bool",
          "name": "",
          "type": "bool"
        }
      ],
      "stateMutability": "view",
      "type": "function"
    },
    {
      "inputs": [
        {
          "internalType": "string",
          "name": "_name",
          "type": "string"
        }
      ],
      "name": "registerBank",
      "outputs": [],
      "stateMutability": "nonpayable",
      "type": "function"
    },
    {
      "inputs": [
        {
          "internalType": "string",
          "name": "_name",
          "type": "string"
        }
      ],
      "name": "registerCustomer",
      "outputs": [],
      "stateMutability": "nonpayable",
      "type": "function"
    },
    {
      "inputs": [
        {
          "internalType": "uint256",
          "name": "",
          "type": "uint256"
        }
      ],
      "name": "registeredBanks",
      "outputs": [
        {
          "internalType": "address",
          "name": "",
          "type": "address"
        }
      ],
      "stateMutability": "view",
      "type": "function"
    },
    {
      "inputs": [
        {
          "internalType": "uint256",
          "name": "",
          "type": "uint256"
        }
      ],
      "name": "registeredCustomers",
      "outputs": [
        {
          "internalType": "address",
          "name": "",
          "type": "address"
        }
      ],
      "stateMutability": "view",
      "type": "function"
    },
    {
      "inputs": [
        {
          "internalType": "uint256",
          "name": "_requestId",
          "type": "uint256"
        }
      ],
      "name": "rejectKYC",
      "outputs": [],
      "stateMutability": "nonpayable",
      "type": "function"
    },
    {
      "inputs": [
        {
          "internalType": "uint256",
          "name": "_requestId",
          "type": "uint256"
        }
      ],
      "name": "reopenRequest",
      "outputs": [],
      "stateMutability": "nonpayable",
      "type": "function"
    },
    {
      "inputs": [],
      "name": "requestCount",
      "outputs": [
        {
          "internalType": "uint256",
          "name": "",
          "type": "uint256"
        }
      ],
      "stateMutability": "view",
      "type": "function"
    },
    {
      "inputs": [
        {
          "internalType": "uint256",
          "name": "",
          "type": "uint256"
        }
      ],
      "name": "requests",
      "outputs": [
        {
          "internalType": "address",
          "name": "bank",
          "type": "address"
        },
        {
          "internalType": "address",
          "name": "customer",
          "type": "address"
        },
        {
          "internalType": "enum KYC.Status",
          "name": "status",
          "type": "uint8"
        },
        {
          "internalType": "string",
          "name": "documentHash",
          "type": "string"
        },
        {
          "internalType": "uint256",
          "name": "createdAt",
          "type": "uint256"
        },
        {
          "internalType": "uint256",
          "name": "updatedAt",
          "type": "uint256"
        }
      ],
      "stateMutability": "view",
      "type": "function"
    },
    {
      "inputs": [
        {
          "internalType": "uint256",
          "name": "_requestId",
          "type": "uint256"
        },
        {
          "internalType": "string",
          "name": "_docHash",
          "type": "string"
        }
      ],
      "name": "submitKYC",
      "outputs": [],
      "stateMutability": "nonpayable",
      "type": "function"
    },
    {
      "inputs": [
        {
          "internalType": "uint256",
          "name": "_requestId",
          "type": "uint256"
        }
      ],
      "name": "verifyKYC",
      "outputs": [],
      "stateMutability": "nonpayable",
      "type": "function"
    }
  ],
  "bytecode": "0x608060405234801561001057600080fd5b50613542806100206000396000f3fe608060405234801561001057600080fd5b506004361061014d5760003560e01c806367c2b259116100c3578063aecec9851161007c578063aecec985146103db578063b245a9ed146103f7578063b8f3c14914610427578063c58343ef14610457578063ec676a4914610487578063fb8cdcdd146104b75761014d565b806367c2b259146103005780637da67ba81461031c57806381d12c581461033b578063832a715a14610370578063951c8a07146103a05780639eef67be146103bf5761014d565b806347a2a26e1161011557806347a2a26e146102065780634ba1f098146102365780634d2c0b1714610252578063567fee11146102825780635badbe4c146102b25780635daa63bd146102d05761014d565b80631378d8061461015257806316be5efa1461016e57806319ced0db1461018a57806328fd5e83146101a65780633f6af805146101d6575b600080fd5b61016c600480360381019061016791906123bc565b6104e7565b005b6101886004803603810190610183919061243b565b61075a565b005b6101a4600480360381019061019f919061243b565b6108f8565b005b6101c060048036038101906101bb91906124c6565b610ab6565b6040516101cd919061250e565b60405180910390f35b6101f060048036038101906101eb919061243b565b610ad6565b6040516101fd9190612538565b60405180910390f35b610220600480360381019061021b91906124c6565b610b15565b60405161022d9190612611565b60405180910390f35b610250600480360381019061024b919061243b565b610bac565b005b61026c600480360381019061026791906124c6565b610d4a565b60405161027991906126b2565b60405180910390f35b61029c600480360381019061029791906124c6565b610dea565b6040516102a99190612611565b60405180910390f35b6102ba610e81565b6040516102c791906126e3565b60405180910390f35b6102ea60048036038101906102e591906124c6565b610e87565b6040516102f791906126e3565b60405180910390f35b61031a600480360381019061031591906126fe565b611264565b005b610324611463565b604051610332929190612924565b60405180910390f35b6103556004803603810190610350919061243b565b611693565b604051610367969594939291906129d2565b60405180910390f35b61038a60048036038101906103859190612a3a565b6117a4565b60405161039791906126e3565b60405180910390f35b6103a86117d5565b6040516103b6929190612924565b60405180910390f35b6103d960048036038101906103d4919061243b565b611a05565b005b6103f560048036038101906103f091906123bc565b611c92565b005b610411600480360381019061040c9190612a3a565b611f05565b60405161041e91906126e3565b60405180910390f35b610441600480360381019061043c919061243b565b611f36565b60405161044e9190612538565b60405180910390f35b610471600480360381019061046c919061243b565b611f75565b60405161047e9190612b12565b60405180910390f35b6104a1600480360381019061049c91906124c6565b61212e565b6040516104ae919061250e565b60405180910390f35b6104d160048036038101906104cc91906124c6565b61214e565b6040516104de91906126b2565b60405180910390f35b600560003373ffffffffffffffffffffffffffffffffffffffff1673ffffffffffffffffffffffffffffffffffffffff16815260200190815260200160002060009054906101000a900460ff1615610574576040517f08c379a000000000000000000000000000000000000000000000000000000000815260040161056b90612b80565b60405180910390fd5b600460003373ffffffffffffffffffffffffffffffffffffffff1673ffffffffffffffffffffffffffffffffffffffff16815260200190815260200160002060009054906101000a900460ff1615610601576040517f08c379a00000000000000000000000000000000000000000000000000000000081526004016105f890612bec565b60405180910390fd5b6001600560003373ffffffffffffffffffffffffffffffffffffffff1673ffffffffffffffffffffffffffffffffffffffff16815260200190815260200160002060006101000a81548160ff02191690831515021790555080600760003373ffffffffffffffffffffffffffffffffffffffff1673ffffffffffffffffffffffffffffffffffffffff16815260200190815260200160002090816106a59190612e18565b506009339080600181540180825580915050600190039060005260206000200160009091909190916101000a81548173ffffffffffffffffffffffffffffffffffffffff021916908373ffffffffffffffffffffffffffffffffffffffff1602179055503373ffffffffffffffffffffffffffffffffffffffff167f2bf7863d4068dda3123298d02ee28530519d2e96eaab6784f5f0b6184ddd20158260405161074f91906126b2565b60405180910390a250565b600080600083815260200190815260200160002090503373ffffffffffffffffffffffffffffffffffffffff168160000160009054906101000a900473ffffffffffffffffffffffffffffffffffffffff1673ffffffffffffffffffffffffffffffffffffffff1614610802576040517f08c379a00000000000000000000000000000000000000000000000000000000081526004016107f990612f36565b60405180910390fd5b600360058111156108165761081561295b565b5b8160010160149054906101000a900460ff16600581111561083a5761083961295b565b5b1461087a576040517f08c379a000000000000000000000000000000000000000000000000000000000815260040161087190612fa2565b60405180910390fd5b60048160010160146101000a81548160ff021916908360058111156108a2576108a161295b565b5b02179055504281600401819055503373ffffffffffffffffffffffffffffffffffffffff16827f09076dc71b8e1a2d8d967615724355271ec3962c289fe781d3e8038f686e6bbe60405160405180910390a35050565b600080600083815260200190815260200160002090503373ffffffffffffffffffffffffffffffffffffffff168160010160009054906101000a900473ffffffffffffffffffffffffffffffffffffffff1673ffffffffffffffffffffffffffffffffffffffff16146109a0576040517f08c379a000000000000000000000000000000000000000000000000000000000815260040161099790612f36565b60405180910390fd5b6005808111156109b3576109b261295b565b5b8160010160149054906101000a900460ff1660058111156109d7576109d661295b565b5b14610a17576040517f08c379a0000000000000000000000000000000000000000000000000000000008152600401610a0e9061300e565b60405180910390fd5b60028160010160146101000a81548160ff02191690836005811115610a3f57610a3e61295b565b5b021790555060405180602001604052806000815250816002019081610a649190612e18565b504281600401819055503373ffffffffffffffffffffffffffffffffffffffff16827fc0beb1af9663ff0846f2af5c77a2a8acfdb62b2735fbbef084803c513081da0260405160405180910390a35050565b60056020528060005260406000206000915054906101000a900460ff1681565b60098181548110610ae657600080fd5b906000526020600020016000915054906101000a900473ffffffffffffffffffffffffffffffffffffffff1681565b6060600260008373ffffffffffffffffffffffffffffffffffffffff1673ffffffffffffffffffffffffffffffffffffffff168152602001908152602001600020805480602002602001604051908101604052809291908181526020018280548015610ba057602002820191906000526020600020905b815481526020019060010190808311610b8c575b50505050509050919050565b600080600083815260200190815260200160002090503373ffffffffffffffffffffffffffffffffffffffff168160010160009054906101000a900473ffffffffffffffffffffffffffffffffffffffff1673ffffffffffffffffffffffffffffffffffffffff1614610c54576040517f08c379a0000000000000000000000000000000000000000000000000000000008152600401610c4b90612f36565b60405180910390fd5b60016005811115610c6857610c6761295b565b5b8160010160149054906101000a900460ff166005811115610c8c57610c8b61295b565b5b14610ccc576040517f08c379a0000000000000000000000000000000000000000000000000000000008152600401610cc39061307a565b60405180910390fd5b60028160010160146101000a81548160ff02191690836005811115610cf457610cf361295b565b5b02179055504281600401819055503373ffffffffffffffffffffffffffffffffffffffff16827f3a5c846fb71ff362cc696a6d1d32fe448a61a8ee9d04f4918aebaf16debab8a060405160405180910390a35050565b60076020528060005260406000206000915090508054610d6990612c3b565b80601f0160208091040260200160405190810160405280929190818152602001828054610d9590612c3b565b8015610de25780601f10610db757610100808354040283529160200191610de2565b820191906000526020600020905b815481529060010190602001808311610dc557829003601f168201915b505050505081565b6060600360008373ffffffffffffffffffffffffffffffffffffffff1673ffffffffffffffffffffffffffffffffffffffff168152602001908152602001600020805480602002602001604051908101604052809291908181526020018280548015610e7557602002820191906000526020600020905b815481526020019060010190808311610e61575b50505050509050919050565b60015481565b6000600460003373ffffffffffffffffffffffffffffffffffffffff1673ffffffffffffffffffffffffffffffffffffffff16815260200190815260200160002060009054906101000a900460ff16610f15576040517f08c379a0000000000000000000000000000000000000000000000000000000008152600401610f0c906130e6565b60405180910390fd5b600560008373ffffffffffffffffffffffffffffffffffffffff1673ffffffffffffffffffffffffffffffffffffffff16815260200190815260200160002060009054906101000a900460ff16610fa1576040517f08c379a0000000000000000000000000000000000000000000000000000000008152600401610f9890613152565b60405180910390fd5b600060016000815480929190610fb6906131a1565b9190505590506040518060c001604052803373ffffffffffffffffffffffffffffffffffffffff1681526020018473ffffffffffffffffffffffffffffffffffffffff168152602001600160058111156110135761101261295b565b5b81526020016040518060200160405280600081525081526020014281526020014281525060008083815260200190815260200160002060008201518160000160006101000a81548173ffffffffffffffffffffffffffffffffffffffff021916908373ffffffffffffffffffffffffffffffffffffffff16021790555060208201518160010160006101000a81548173ffffffffffffffffffffffffffffffffffffffff021916908373ffffffffffffffffffffffffffffffffffffffff16021790555060408201518160010160146101000a81548160ff021916908360058111156111025761110161295b565b5b0217905550606082015181600201908161111c9190612e18565b506080820151816003015560a08201518160040155905050600360003373ffffffffffffffffffffffffffffffffffffffff1673ffffffffffffffffffffffffffffffffffffffff168152602001908152602001600020819080600181540180825580915050600190039060005260206000200160009091909190915055600260008473ffffffffffffffffffffffffffffffffffffffff1673ffffffffffffffffffffffffffffffffffffffff1681526020019081526020016000208190806001815401808255809150506001900390600052602060002001600090919091909150558273ffffffffffffffffffffffffffffffffffffffff163373ffffffffffffffffffffffffffffffffffffffff16827fe1e94f42b3250b4725095c9accf5b47210a0bcd43edb5d2ba138428d101d938160405160405180910390a480915050919050565b600080600084815260200190815260200160002090503373ffffffffffffffffffffffffffffffffffffffff168160010160009054906101000a900473ffffffffffffffffffffffffffffffffffffffff1673ffffffffffffffffffffffffffffffffffffffff161461130c576040517f08c379a000000000000000000000000000000000000000000000000000000000815260040161130390612f36565b60405180910390fd5b600260058111156113205761131f61295b565b5b8160010160149054906101000a900460ff1660058111156113445761134361295b565b5b14611384576040517f08c379a000000000000000000000000000000000000000000000000000000000815260040161137b90613235565b60405180910390fd5b60008251116113c8576040517f08c379a00000000000000000000000000000000000000000000000000000000081526004016113bf906132a1565b60405180910390fd5b818160020190816113d99190612e18565b5060038160010160146101000a81548160ff021916908360058111156114025761140161295b565b5b02179055504281600401819055503373ffffffffffffffffffffffffffffffffffffffff16837e15276262019552b82e49261d9116639ac926bafe87ebb563a8c9749a5ee1ea8460405161145691906126b2565b60405180910390a3505050565b606080600060098054905067ffffffffffffffff81111561148757611486612291565b5b6040519080825280602002602001820160405280156114ba57816020015b60608152602001906001900390816114a55790505b50905060005b6009805490508110156115fe5760076000600983815481106114e5576114e46132c1565b5b9060005260206000200160009054906101000a900473ffffffffffffffffffffffffffffffffffffffff1673ffffffffffffffffffffffffffffffffffffffff1673ffffffffffffffffffffffffffffffffffffffff168152602001908152602001600020805461155590612c3b565b80601f016020809104026020016040519081016040528092919081815260200182805461158190612c3b565b80156115ce5780601f106115a3576101008083540402835291602001916115ce565b820191906000526020600020905b8154815290600101906020018083116115b157829003601f168201915b50505050508282815181106115e6576115e56132c1565b5b602002602001018190525080806001019150506114c0565b506009818180548060200260200160405190810160405280929190818152602001828054801561168357602002820191906000526020600020905b8160009054906101000a900473ffffffffffffffffffffffffffffffffffffffff1673ffffffffffffffffffffffffffffffffffffffff1681526020019060010190808311611639575b5050505050915092509250509091565b60006020528060005260406000206000915090508060000160009054906101000a900473ffffffffffffffffffffffffffffffffffffffff16908060010160009054906101000a900473ffffffffffffffffffffffffffffffffffffffff16908060010160149054906101000a900460ff169080600201805461171590612c3b565b80601f016020809104026020016040519081016040528092919081815260200182805461174190612c3b565b801561178e5780601f106117635761010080835404028352916020019161178e565b820191906000526020600020905b81548152906001019060200180831161177157829003601f168201915b5050505050908060030154908060040154905086565b600260205281600052604060002081815481106117c057600080fd5b90600052602060002001600091509150505481565b606080600060088054905067ffffffffffffffff8111156117f9576117f8612291565b5b60405190808252806020026020018201604052801561182c57816020015b60608152602001906001900390816118175790505b50905060005b600880549050811015611970576006600060088381548110611857576118566132c1565b5b9060005260206000200160009054906101000a900473ffffffffffffffffffffffffffffffffffffffff1673ffffffffffffffffffffffffffffffffffffffff1673ffffffffffffffffffffffffffffffffffffffff16815260200190815260200160002080546118c790612c3b565b80601f01602080910402602001604051908101604052809291908181526020018280546118f390612c3b565b80156119405780601f1061191557610100808354040283529160200191611940565b820191906000526020600020905b81548152906001019060200180831161192357829003601f168201915b5050505050828281518110611958576119576132c1565b5b60200260200101819052508080600101915050611832565b50600881818054806020026020016040519081016040528092919081815260200182805480156119f557602002820191906000526020600020905b8160009054906101000a900473ffffffffffffffffffffffffffffffffffffffff1673ffffffffffffffffffffffffffffffffffffffff16815260200190600101908083116119ab575b5050505050915092509250509091565b600080600083815260200190815260200160002090503373ffffffffffffffffffffffffffffffffffffffff168160000160009054906101000a900473ffffffffffffffffffffffffffffffffffffffff1673ffffffffffffffffffffffffffffffffffffffff1614611aad576040517f08c379a0000000000000000000000000000000000000000000000000000000008152600401611aa490612f36565b60405180910390fd5b60006005811115611ac157611ac061295b565b5b8160010160149054906101000a900460ff166005811115611ae557611ae461295b565b5b03611b25576040517f08c379a0000000000000000000000000000000000000000000000000000000008152600401611b1c9061333c565b60405180910390fd5b60046005811115611b3957611b3861295b565b5b8160010160149054906101000a900460ff166005811115611b5d57611b5c61295b565b5b03611b9d576040517f08c379a0000000000000000000000000000000000000000000000000000000008152600401611b94906133a8565b60405180910390fd5b600580811115611bb057611baf61295b565b5b8160010160149054906101000a900460ff166005811115611bd457611bd361295b565b5b03611c14576040517f08c379a0000000000000000000000000000000000000000000000000000000008152600401611c0b90613414565b60405180910390fd5b60058160010160146101000a81548160ff02191690836005811115611c3c57611c3b61295b565b5b02179055504281600401819055503373ffffffffffffffffffffffffffffffffffffffff16827f9d524bd04f9a33393607f0fdafe61e847a45696418cf82b47663f0e3027f4c8a60405160405180910390a35050565b600460003373ffffffffffffffffffffffffffffffffffffffff1673ffffffffffffffffffffffffffffffffffffffff16815260200190815260200160002060009054906101000a900460ff1615611d1f576040517f08c379a0000000000000000000000000000000000000000000000000000000008152600401611d1690613480565b60405180910390fd5b600560003373ffffffffffffffffffffffffffffffffffffffff1673ffffffffffffffffffffffffffffffffffffffff16815260200190815260200160002060009054906101000a900460ff1615611dac576040517f08c379a0000000000000000000000000000000000000000000000000000000008152600401611da3906134ec565b60405180910390fd5b6001600460003373ffffffffffffffffffffffffffffffffffffffff1673ffffffffffffffffffffffffffffffffffffffff16815260200190815260200160002060006101000a81548160ff02191690831515021790555080600660003373ffffffffffffffffffffffffffffffffffffffff1673ffffffffffffffffffffffffffffffffffffffff1681526020019081526020016000209081611e509190612e18565b506008339080600181540180825580915050600190039060005260206000200160009091909190916101000a81548173ffffffffffffffffffffffffffffffffffffffff021916908373ffffffffffffffffffffffffffffffffffffffff1602179055503373ffffffffffffffffffffffffffffffffffffffff167f3d39b9dc3cc28f0852c205a5818a351f20e13393f499c9a7ce42faee19843ac382604051611efa91906126b2565b60405180910390a250565b60036020528160005260406000208181548110611f2157600080fd5b90600052602060002001600091509150505481565b60088181548110611f4657600080fd5b906000526020600020016000915054906101000a900473ffffffffffffffffffffffffffffffffffffffff1681565b611f7d6121ee565b6000808381526020019081526020016000206040518060c00160405290816000820160009054906101000a900473ffffffffffffffffffffffffffffffffffffffff1673ffffffffffffffffffffffffffffffffffffffff1673ffffffffffffffffffffffffffffffffffffffff1681526020016001820160009054906101000a900473ffffffffffffffffffffffffffffffffffffffff1673ffffffffffffffffffffffffffffffffffffffff1673ffffffffffffffffffffffffffffffffffffffff1681526020016001820160149054906101000a900460ff16600581111561206b5761206a61295b565b5b600581111561207d5761207c61295b565b5b815260200160028201805461209190612c3b565b80601f01602080910402602001604051908101604052809291908181526020018280546120bd90612c3b565b801561210a5780601f106120df5761010080835404028352916020019161210a565b820191906000526020600020905b8154815290600101906020018083116120ed57829003601f168201915b50505050508152602001600382015481526020016004820154815250509050919050565b60046020528060005260406000206000915054906101000a900460ff1681565b6006602052806000526040600020600091509050805461216d90612c3b565b80601f016020809104026020016040519081016040528092919081815260200182805461219990612c3b565b80156121e65780601f106121bb576101008083540402835291602001916121e6565b820191906000526020600020905b8154815290600101906020018083116121c957829003601f168201915b505050505081565b6040518060c00160405280600073ffffffffffffffffffffffffffffffffffffffff168152602001600073ffffffffffffffffffffffffffffffffffffffff168152602001600060058111156122475761224661295b565b5b81526020016060815260200160008152602001600081525090565b6000604051905090565b600080fd5b600080fd5b600080fd5b600080fd5b6000601f19601f8301169050919050565b7f4e487b7100000000000000000000000000000000000000000000000000000000600052604160045260246000fd5b6122c982612280565b810181811067ffffffffffffffff821117156122e8576122e7612291565b5b80604052505050565b60006122fb612262565b905061230782826122c0565b919050565b600067ffffffffffffffff82111561232757612326612291565b5b61233082612280565b9050602081019050919050565b82818337600083830152505050565b600061235f61235a8461230c565b6122f1565b90508281526020810184848401111561237b5761237a61227b565b5b61238684828561233d565b509392505050565b600082601f8301126123a3576123a2612276565b5b81356123b384826020860161234c565b91505092915050565b6000602082840312156123d2576123d161226c565b5b600082013567ffffffffffffffff8111156123f0576123ef612271565b5b6123fc8482850161238e565b91505092915050565b6000819050919050565b61241881612405565b811461242357600080fd5b50565b6000813590506124358161240f565b92915050565b6000602082840312156124515761245061226c565b5b600061245f84828501612426565b91505092915050565b600073ffffffffffffffffffffffffffffffffffffffff82169050919050565b600061249382612468565b9050919050565b6124a381612488565b81146124ae57600080fd5b50565b6000813590506124c08161249a565b92915050565b6000602082840312156124dc576124db61226c565b5b60006124ea848285016124b1565b91505092915050565b60008115159050919050565b612508816124f3565b82525050565b600060208201905061252360008301846124ff565b92915050565b61253281612488565b82525050565b600060208201905061254d6000830184612529565b92915050565b600081519050919050565b600082825260208201905092915050565b6000819050602082019050919050565b61258881612405565b82525050565b600061259a838361257f565b60208301905092915050565b6000602082019050919050565b60006125be82612553565b6125c8818561255e565b93506125d38361256f565b8060005b838110156126045781516125eb888261258e565b97506125f6836125a6565b9250506001810190506125d7565b5085935050505092915050565b6000602082019050818103600083015261262b81846125b3565b905092915050565b600081519050919050565b600082825260208201905092915050565b60005b8381101561266d578082015181840152602081019050612652565b60008484015250505050565b600061268482612633565b61268e818561263e565b935061269e81856020860161264f565b6126a781612280565b840191505092915050565b600060208201905081810360008301526126cc8184612679565b905092915050565b6126dd81612405565b82525050565b60006020820190506126f860008301846126d4565b92915050565b600080604083850312156127155761271461226c565b5b600061272385828601612426565b925050602083013567ffffffffffffffff81111561274457612743612271565b5b6127508582860161238e565b9150509250929050565b600081519050919050565b600082825260208201905092915050565b6000819050602082019050919050565b61278f81612488565b82525050565b60006127a18383612786565b60208301905092915050565b6000602082019050919050565b60006127c58261275a565b6127cf8185612765565b93506127da83612776565b8060005b8381101561280b5781516127f28882612795565b97506127fd836127ad565b9250506001810190506127de565b5085935050505092915050565b600081519050919050565b600082825260208201905092915050565b6000819050602082019050919050565b600082825260208201905092915050565b600061286082612633565b61286a8185612844565b935061287a81856020860161264f565b61288381612280565b840191505092915050565b600061289a8383612855565b905092915050565b6000602082019050919050565b60006128ba82612818565b6128c48185612823565b9350836020820285016128d685612834565b8060005b8581101561291257848403895281516128f3858261288e565b94506128fe836128a2565b925060208a019950506001810190506128da565b50829750879550505050505092915050565b6000604082019050818103600083015261293e81856127ba565b9050818103602083015261295281846128af565b90509392505050565b7f4e487b7100000000000000000000000000000000000000000000000000000000600052602160045260246000fd5b6006811061299b5761299a61295b565b5b50565b60008190506129ac8261298a565b919050565b60006129bc8261299e565b9050919050565b6129cc816129b1565b82525050565b600060c0820190506129e76000830189612529565b6129f46020830188612529565b612a0160408301876129c3565b8181036060830152612a138186612679565b9050612a2260808301856126d4565b612a2f60a08301846126d4565b979650505050505050565b60008060408385031215612a5157612a5061226c565b5b6000612a5f858286016124b1565b9250506020612a7085828601612426565b9150509250929050565b612a83816129b1565b82525050565b600060c083016000830151612aa16000860182612786565b506020830151612ab46020860182612786565b506040830151612ac76040860182612a7a565b5060608301518482036060860152612adf8282612855565b9150506080830151612af4608086018261257f565b5060a0830151612b0760a086018261257f565b508091505092915050565b60006020820190508181036000830152612b2c8184612a89565b905092915050565b7f416c7265616479207265676973746572656420617320637573746f6d65720000600082015250565b6000612b6a601e8361263e565b9150612b7582612b34565b602082019050919050565b60006020820190508181036000830152612b9981612b5d565b9050919050565b7f4164647265737320697320612062616e6b000000000000000000000000000000600082015250565b6000612bd660118361263e565b9150612be182612ba0565b602082019050919050565b60006020820190508181036000830152612c0581612bc9565b9050919050565b7f4e487b7100000000000000000000000000000000000000000000000000000000600052602260045260246000fd5b60006002820490506001821680612c5357607f821691505b602082108103612c6657612c65612c0c565b5b50919050565b60008190508160005260206000209050919050565b60006020601f8301049050919050565b600082821b905092915050565b600060088302612cce7fffffffffffffffffffffffffffffffffffffffffffffffffffffffffffffffff82612c91565b612cd88683612c91565b95508019841693508086168417925050509392505050565b6000819050919050565b6000612d15612d10612d0b84612405565b612cf0565b612405565b9050919050565b6000819050919050565b612d2f83612cfa565b612d43612d3b82612d1c565b848454612c9e565b825550505050565b600090565b612d58612d4b565b612d63818484612d26565b505050565b5b81811015612d8757612d7c600082612d50565b600181019050612d69565b5050565b601f821115612dcc57612d9d81612c6c565b612da684612c81565b81016020851015612db5578190505b612dc9612dc185612c81565b830182612d68565b50505b505050565b600082821c905092915050565b6000612def60001984600802612dd1565b1980831691505092915050565b6000612e088383612dde565b9150826002028217905092915050565b612e2182612633565b67ffffffffffffffff811115612e3a57612e39612291565b5b612e448254612c3b565b612e4f828285612d8b565b600060209050601f831160018114612e825760008415612e70578287015190505b612e7a8582612dfc565b865550612ee2565b601f198416612e9086612c6c565b60005b82811015612eb857848901518255600182019150602085019450602081019050612e93565b86831015612ed55784890151612ed1601f891682612dde565b8355505b6001600288020188555050505b505050505050565b7f4e6f7420796f7572207265717565737400000000000000000000000000000000600082015250565b6000612f2060108361263e565b9150612f2b82612eea565b602082019050919050565b60006020820190508181036000830152612f4f81612f13565b9050919050565b7f537461747573206d757374206265205375626d69747465640000000000000000600082015250565b6000612f8c60188361263e565b9150612f9782612f56565b602082019050919050565b60006020820190508181036000830152612fbb81612f7f565b9050919050565b7f537461747573206d7573742062652052656a6563746564000000000000000000600082015250565b6000612ff860178361263e565b915061300382612fc2565b602082019050919050565b6000602082019050818103600083015261302781612feb565b9050919050565b7f537461747573206d7573742062652050656e64696e6700000000000000000000600082015250565b600061306460168361263e565b915061306f8261302e565b602082019050919050565b6000602082019050818103600083015261309381613057565b9050919050565b7f4f6e6c792062616e6b732063616e20696e697469617465000000000000000000600082015250565b60006130d060178361263e565b91506130db8261309a565b602082019050919050565b600060208201905081810360008301526130ff816130c3565b9050919050565b7f546172676574206973206e6f74206120637573746f6d65720000000000000000600082015250565b600061313c60188361263e565b915061314782613106565b602082019050919050565b6000602082019050818103600083015261316b8161312f565b9050919050565b7f4e487b7100000000000000000000000000000000000000000000000000000000600052601160045260246000fd5b60006131ac82612405565b91507fffffffffffffffffffffffffffffffffffffffffffffffffffffffffffffffff82036131de576131dd613172565b5b600182019050919050565b7f537461747573206d757374206265204163636570746564000000000000000000600082015250565b600061321f60178361263e565b915061322a826131e9565b602082019050919050565b6000602082019050818103600083015261324e81613212565b9050919050565b7f486173682063616e6e6f7420626520656d707479000000000000000000000000600082015250565b600061328b60148361263e565b915061329682613255565b602082019050919050565b600060208201905081810360008301526132ba8161327e565b9050919050565b7f4e487b7100000000000000000000000000000000000000000000000000000000600052603260045260246000fd5b7f4e6f207265717565737420666f756e6400000000000000000000000000000000600082015250565b600061332660108361263e565b9150613331826132f0565b602082019050919050565b6000602082019050818103600083015261335581613319565b9050919050565b7f416c726561647920766572696669656400000000000000000000000000000000600082015250565b600061339260108361263e565b915061339d8261335c565b602082019050919050565b600060208201905081810360008301526133c181613385565b9050919050565b7f416c72656164792072656a656374656400000000000000000000000000000000600082015250565b60006133fe60108361263e565b9150613409826133c8565b602082019050919050565b6000602082019050818103600083015261342d816133f1565b9050919050565b7f416c726561647920726567697374657265642061732062616e6b000000000000600082015250565b600061346a601a8361263e565b915061347582613434565b602082019050919050565b600060208201905081810360008301526134998161345d565b9050919050565b7f41646472657373206973206120637573746f6d65720000000000000000000000600082015250565b60006134d660158361263e565b91506134e1826134a0565b602082019050919050565b60006020820190508181036000830152613505816134c9565b905091905056fea2646970667358221220070f41ec86d4bca1315241723a9da8079854680340827263cb970c79cb5554c664736f6c63430008180033",
  "linkReferences": {},
  "deployedLinkReferences": {}
}