{
  "_format": "hh-sol-artifact-1",
  "contractName": "KYC",
  "sourceName": "contracts/KYC.sol",
  "abi": [
    {
      "anonymous": false,
      "inputs": [
        {
          "indexed": true,
          "internalType": "address",
          "name": "customerAddress",
          "type": "address"
        },
        {
          "indexed": true,
          "internalType": "address",
          "name": "bankAddress",
          "type": "address"
        }
      ],
      "name": "AccessGranted",
      "type": "event"
    },
    {
      "anonymous": false,
      "inputs": [
        {
          "indexed": true,
          "internalType": "address",
          "name": "customerAddress",
          "type": "address"
        },
        {
          "indexed": true,
          "internalType": "address",
          "name": "bankAddress",
          "type": "address"
        }
      ],
      "name": "AccessRevoked",
      "type": "event"
    },
    {
      "anonymous": false,
      "inputs": [
        {
          "indexed": true,
          "internalType": "address",
          "name": "bankAddress",
          "type": "address"
        },
        {
          "indexed": false,
          "internalType": "string",
          "name": "name",
          "type": "string"
        }
      ],
      "name": "BankRegistered",
      "type": "event"
    },
    {
      "anonymous": false,
      "inputs": [
        {
          "indexed": true,
          "internalType": "address",
          "name": "customerAddress",
          "type": "address"
        },
        {
          "indexed": false,
          "internalType": "string",
          "name": "name",
          "type": "string"
        }
      ],
      "name": "CustomerRegistered",
      "type": "event"
    },
    {
      "anonymous": false,
      "inputs": [
        {
          "indexed": true,
          "internalType": "address",
          "name": "customerAddress",
          "type": "address"
        },
        {
          "indexed": true,
          "internalType": "address",
          "name": "bankAddress",
          "type": "address"
        },
        {
          "indexed": false,
          "internalType": "string",
          "name": "newStatus",
          "type": "string"
        }
      ],
      "name": "KYCStatusChanged",
      "type": "event"
    },
    {
      "inputs": [
        {
          "internalType": "address",
          "name": "_customerAddress",
          "type": "address"
        }
      ],
      "name": "approveKYC",
      "outputs": [],
      "stateMutability": "nonpayable",
      "type": "function"
    },
    {
      "inputs": [
        {
          "internalType": "address",
          "name": "",
          "type": "address"
        },
        {
          "internalType": "address",
          "name": "",
          "type": "address"
        }
      ],
      "name": "bankCustomerStatus",
      "outputs": [
        {
          "internalType": "string",
          "name": "",
          "type": "string"
        }
      ],
      "stateMutability": "view",
      "type": "function"
    },
    {
      "inputs": [
        {
          "internalType": "address",
          "name": "",
          "type": "address"
        }
      ],
      "name": "banks",
      "outputs": [
        {
          "internalType": "string",
          "name": "name",
          "type": "string"
        },
        {
          "internalType": "address",
          "name": "ethAddress",
          "type": "address"
        },
        {
          "internalType": "bool",
          "name": "isRegistered",
          "type": "bool"
        }
      ],
      "stateMutability": "view",
      "type": "function"
    },
    {
      "inputs": [
        {
          "internalType": "address",
          "name": "",
          "type": "address"
        },
        {
          "internalType": "address",
          "name": "",
          "type": "address"
        }
      ],
      "name": "customerBankAccess",
      "outputs": [
        {
          "internalType": "bool",
          "name": "",
          "type": "bool"
        }
      ],
      "stateMutability": "view",
      "type": "function"
    },
    {
      "inputs": [
        {
          "internalType": "address",
          "name": "",
          "type": "address"
        }
      ],
      "name": "customers",
      "outputs": [
        {
          "internalType": "string",
          "name": "userName",
          "type": "string"
        },
        {
          "internalType": "string",
          "name": "dataPayload",
          "type": "string"
        },
        {
          "internalType": "bool",
          "name": "isRegistered",
          "type": "bool"
        }
      ],
      "stateMutability": "view",
      "type": "function"
    },
    {
      "inputs": [],
      "name": "getAllBanks",
      "outputs": [
        {
          "components": [
            {
              "internalType": "string",
              "name": "name",
              "type": "string"
            },
            {
              "internalType": "address",
              "name": "ethAddress",
              "type": "address"
            },
            {
              "internalType": "bool",
              "name": "isRegistered",
              "type": "bool"
            }
          ],
          "internalType": "struct KYC.Bank[]",
          "name": "",
          "type": "tuple[]"
        }
      ],
      "stateMutability": "view",
      "type": "function"
    },
    {
      "inputs": [],
      "name": "getAllCustomers",
      "outputs": [
        {
          "components": [
            {
              "internalType": "string",
              "name": "userName",
              "type": "string"
            },
            {
              "internalType": "string",
              "name": "dataPayload",
              "type": "string"
            },
            {
              "internalType": "bool",
              "name": "isRegistered",
              "type": "bool"
            }
          ],
          "internalType": "struct KYC.Customer[]",
          "name": "",
          "type": "tuple[]"
        },
        {
          "internalType": "address[]",
          "name": "",
          "type": "address[]"
        }
      ],
      "stateMutability": "view",
      "type": "function"
    },
    {
      "inputs": [
        {
          "internalType": "address",
          "name": "_customerAddress",
          "type": "address"
        },
        {
          "internalType": "address",
          "name": "_bankAddress",
          "type": "address"
        }
      ],
      "name": "getStatusWithBank",
      "outputs": [
        {
          "internalType": "string",
          "name": "",
          "type": "string"
        },
        {
          "internalType": "bool",
          "name": "",
          "type": "bool"
        }
      ],
      "stateMutability": "view",
      "type": "function"
    },
    {
      "inputs": [
        {
          "internalType": "address",
          "name": "_bankAddress",
          "type": "address"
        }
      ],
      "name": "grantAccess",
      "outputs": [],
      "stateMutability": "nonpayable",
      "type": "function"
    },
    {
      "inputs": [
        {
          "internalType": "string",
          "name": "_name",
          "type": "string"
        }
      ],
      "name": "registerBank",
      "outputs": [],
      "stateMutability": "nonpayable",
      "type": "function"
    },
    {
      "inputs": [
        {
          "internalType": "string",
          "name": "_userName",
          "type": "string"
        }
      ],
      "name": "registerCustomer",
      "outputs": [],
      "stateMutability": "nonpayable",
      "type": "function"
    },
    {
      "inputs": [
        {
          "internalType": "uint256",
          "name": "",
          "type": "uint256"
        }
      ],
      "name": "registeredBankAddresses",
      "outputs": [
        {
          "internalType": "address",
          "name": "",
          "type": "address"
        }
      ],
      "stateMutability": "view",
      "type": "function"
    },
    {
      "inputs": [
        {
          "internalType": "uint256",
          "name": "",
          "type": "uint256"
        }
      ],
      "name": "registeredCustomerAddresses",
      "outputs": [
        {
          "internalType": "address",
          "name": "",
          "type": "address"
        }
      ],
      "stateMutability": "view",
      "type": "function"
    },
    {
      "inputs": [
        {
          "internalType": "address",
          "name": "_customerAddress",
          "type": "address"
        }
      ],
      "name": "rejectKYC",
      "outputs": [],
      "stateMutability": "nonpayable",
      "type": "function"
    },
    {
      "inputs": [
        {
          "internalType": "address",
          "name": "_bankAddress",
          "type": "address"
        }
      ],
      "name": "revokeAccess",
      "outputs": [],
      "stateMutability": "nonpayable",
      "type": "function"
    },
    {
      "inputs": [
        {
          "internalType": "string",
          "name": "_dataPayload",
          "type": "string"
        }
      ],
      "name": "updateCustomerData",
      "outputs": [],
      "stateMutability": "nonpayable",
      "type": "function"
    },
    {
      "inputs": [
        {
          "internalType": "address",
          "name": "_customerAddress",
          "type": "address"
        }
      ],
      "name": "viewCustomerKYC",
      "outputs": [
        {
          "internalType": "string",
          "name": "",
          "type": "string"
        },
        {
          "internalType": "string",
          "name": "",
          "type": "string"
        },
        {
          "internalType": "string",
          "name": "",
          "type": "string"
        }
      ],
      "stateMutability": "view",
      "type": "function"
    }
  ],
  "bytecode": "0x608060405234801561001057600080fd5b506133ab806100206000396000f3fe608060405234801561001057600080fd5b506004361061010b5760003560e01c806380c3b8c2116100a2578063b865c1c011610071578063b865c1c0146102b9578063c42e5888146102e9578063f4d050e314610305578063f8b0fd4114610335578063fe37db13146103675761010b565b806380c3b8c21461023157806385e6853114610263578063951c8a071461027f578063aecec9851461029d5761010b565b8063336989ae116100de578063336989ae146101945780634e42bbfd146101c657806354bff9db146101f65780637da67ba8146102125761010b565b80630ae5e739146101105780630e27324d1461012c5780631378d80614610148578063331e049314610164575b600080fd5b61012a600480360381019061012591906122f2565b610398565b005b610146600480360381019061014191906122f2565b610666565b005b610162600480360381019061015d9190612465565b6108e2565b005b61017e600480360381019061017991906124ae565b610b70565b60405161018b9190612509565b60405180910390f35b6101ae60048036038101906101a991906122f2565b610b9f565b6040516101bd939291906125a3565b60405180910390f35b6101e060048036038101906101db91906124ae565b610ce6565b6040516101ed91906125e8565b60405180910390f35b610210600480360381019061020b9190612465565b610d93565b005b61021a610e75565b60405161022892919061283a565b60405180910390f35b61024b600480360381019061024691906122f2565b61116c565b60405161025a93929190612880565b60405180910390f35b61027d600480360381019061027891906122f2565b61124b565b005b61028761148b565b60405161029491906129d0565b60405180910390f35b6102b760048036038101906102b29190612465565b6116b7565b005b6102d360048036038101906102ce9190612a28565b61197c565b6040516102e09190612a55565b60405180910390f35b61030360048036038101906102fe91906122f2565b6119bb565b005b61031f600480360381019061031a9190612a28565b611c37565b60405161032c9190612a55565b60405180910390f35b61034f600480360381019061034a91906122f2565b611c76565b60405161035e93929190612a70565b60405180910390f35b610381600480360381019061037c91906124ae565b612083565b60405161038f929190612abc565b60405180910390f35b600160003373ffffffffffffffffffffffffffffffffffffffff1673ffffffffffffffffffffffffffffffffffffffff16815260200190815260200160002060020160009054906101000a900460ff16610427576040517f08c379a000000000000000000000000000000000000000000000000000000000815260040161041e90612b38565b60405180910390fd5b6000808273ffffffffffffffffffffffffffffffffffffffff1673ffffffffffffffffffffffffffffffffffffffff16815260200190815260200160002060010160149054906101000a900460ff166104b5576040517f08c379a00000000000000000000000000000000000000000000000000000000081526004016104ac90612ba4565b60405180910390fd5b6001600460003373ffffffffffffffffffffffffffffffffffffffff1673ffffffffffffffffffffffffffffffffffffffff16815260200190815260200160002060008373ffffffffffffffffffffffffffffffffffffffff1673ffffffffffffffffffffffffffffffffffffffff16815260200190815260200160002060006101000a81548160ff0219169083151502179055506040518060400160405280600781526020017f50656e64696e6700000000000000000000000000000000000000000000000000815250600560008373ffffffffffffffffffffffffffffffffffffffff1673ffffffffffffffffffffffffffffffffffffffff16815260200190815260200160002060003373ffffffffffffffffffffffffffffffffffffffff1673ffffffffffffffffffffffffffffffffffffffff16815260200190815260200160002090816106089190612dd0565b508073ffffffffffffffffffffffffffffffffffffffff163373ffffffffffffffffffffffffffffffffffffffff167f9f520b3bfc56d06f7065d10b4683b3f57ac8895d5026cd176dee95ce1454cb8d60405160405180910390a350565b6000803373ffffffffffffffffffffffffffffffffffffffff1673ffffffffffffffffffffffffffffffffffffffff16815260200190815260200160002060010160149054906101000a900460ff166106f4576040517f08c379a00000000000000000000000000000000000000000000000000000000081526004016106eb90612eee565b60405180910390fd5b600460008273ffffffffffffffffffffffffffffffffffffffff1673ffffffffffffffffffffffffffffffffffffffff16815260200190815260200160002060003373ffffffffffffffffffffffffffffffffffffffff1673ffffffffffffffffffffffffffffffffffffffff16815260200190815260200160002060009054906101000a900460ff166107bd576040517f08c379a00000000000000000000000000000000000000000000000000000000081526004016107b490612f5a565b60405180910390fd5b6040518060400160405280600881526020017f417070726f766564000000000000000000000000000000000000000000000000815250600560003373ffffffffffffffffffffffffffffffffffffffff1673ffffffffffffffffffffffffffffffffffffffff16815260200190815260200160002060008373ffffffffffffffffffffffffffffffffffffffff1673ffffffffffffffffffffffffffffffffffffffff168152602001908152602001600020908161087b9190612dd0565b503373ffffffffffffffffffffffffffffffffffffffff168173ffffffffffffffffffffffffffffffffffffffff167fc7c5af31150091ef812afcddd1e5ff07bbd87d8ec31cb88b94e533f5d4678c8f6040516108d790612fc6565b60405180910390a350565b600160003373ffffffffffffffffffffffffffffffffffffffff1673ffffffffffffffffffffffffffffffffffffffff16815260200190815260200160002060020160009054906101000a900460ff1615610972576040517f08c379a000000000000000000000000000000000000000000000000000000000815260040161096990613032565b60405180910390fd5b6000803373ffffffffffffffffffffffffffffffffffffffff1673ffffffffffffffffffffffffffffffffffffffff16815260200190815260200160002060010160149054906101000a900460ff1615610a01576040517f08c379a00000000000000000000000000000000000000000000000000000000081526004016109f89061309e565b60405180910390fd5b604051806060016040528082815260200160405180602001604052806000815250815260200160011515815250600160003373ffffffffffffffffffffffffffffffffffffffff1673ffffffffffffffffffffffffffffffffffffffff1681526020019081526020016000206000820151816000019081610a829190612dd0565b506020820151816001019081610a989190612dd0565b5060408201518160020160006101000a81548160ff0219169083151502179055509050506003339080600181540180825580915050600190039060005260206000200160009091909190916101000a81548173ffffffffffffffffffffffffffffffffffffffff021916908373ffffffffffffffffffffffffffffffffffffffff1602179055503373ffffffffffffffffffffffffffffffffffffffff167f2bf7863d4068dda3123298d02ee28530519d2e96eaab6784f5f0b6184ddd201582604051610b6591906125e8565b60405180910390a250565b60046020528160005260406000206020528060005260406000206000915091509054906101000a900460ff1681565b6001602052806000526040600020600091509050806000018054610bc290612bf3565b80601f0160208091040260200160405190810160405280929190818152602001828054610bee90612bf3565b8015610c3b5780601f10610c1057610100808354040283529160200191610c3b565b820191906000526020600020905b815481529060010190602001808311610c1e57829003601f168201915b505050505090806001018054610c5090612bf3565b80601f0160208091040260200160405190810160405280929190818152602001828054610c7c90612bf3565b8015610cc95780601f10610c9e57610100808354040283529160200191610cc9565b820191906000526020600020905b815481529060010190602001808311610cac57829003601f168201915b5050505050908060020160009054906101000a900460ff16905083565b6005602052816000526040600020602052806000526040600020600091509150508054610d1290612bf3565b80601f0160208091040260200160405190810160405280929190818152602001828054610d3e90612bf3565b8015610d8b5780601f10610d6057610100808354040283529160200191610d8b565b820191906000526020600020905b815481529060010190602001808311610d6e57829003601f168201915b505050505081565b600160003373ffffffffffffffffffffffffffffffffffffffff1673ffffffffffffffffffffffffffffffffffffffff16815260200190815260200160002060020160009054906101000a900460ff16610e22576040517f08c379a0000000000000000000000000000000000000000000000000000000008152600401610e1990612b38565b60405180910390fd5b80600160003373ffffffffffffffffffffffffffffffffffffffff1673ffffffffffffffffffffffffffffffffffffffff1681526020019081526020016000206001019081610e719190612dd0565b5050565b606080600060038054905067ffffffffffffffff811115610e9957610e9861233a565b5b604051908082528060200260200182016040528015610ed257816020015b610ebf612224565b815260200190600190039081610eb75790505b50905060005b6003805490508110156110d7576001600060038381548110610efd57610efc6130be565b5b9060005260206000200160009054906101000a900473ffffffffffffffffffffffffffffffffffffffff1673ffffffffffffffffffffffffffffffffffffffff1673ffffffffffffffffffffffffffffffffffffffff168152602001908152602001600020604051806060016040529081600082018054610f7d90612bf3565b80601f0160208091040260200160405190810160405280929190818152602001828054610fa990612bf3565b8015610ff65780601f10610fcb57610100808354040283529160200191610ff6565b820191906000526020600020905b815481529060010190602001808311610fd957829003601f168201915b5050505050815260200160018201805461100f90612bf3565b80601f016020809104026020016040519081016040528092919081815260200182805461103b90612bf3565b80156110885780601f1061105d57610100808354040283529160200191611088565b820191906000526020600020905b81548152906001019060200180831161106b57829003601f168201915b505050505081526020016002820160009054906101000a900460ff1615151515815250508282815181106110bf576110be6130be565b5b60200260200101819052508080600101915050610ed8565b508060038080548060200260200160405190810160405280929190818152602001828054801561115c57602002820191906000526020600020905b8160009054906101000a900473ffffffffffffffffffffffffffffffffffffffff1673ffffffffffffffffffffffffffffffffffffffff1681526020019060010190808311611112575b5050505050905092509250509091565b600060205280600052604060002060009150905080600001805461118f90612bf3565b80601f01602080910402602001604051908101604052809291908181526020018280546111bb90612bf3565b80156112085780601f106111dd57610100808354040283529160200191611208565b820191906000526020600020905b8154815290600101906020018083116111eb57829003601f168201915b5050505050908060010160009054906101000a900473ffffffffffffffffffffffffffffffffffffffff16908060010160149054906101000a900460ff16905083565b600160003373ffffffffffffffffffffffffffffffffffffffff1673ffffffffffffffffffffffffffffffffffffffff16815260200190815260200160002060020160009054906101000a900460ff166112da576040517f08c379a00000000000000000000000000000000000000000000000000000000081526004016112d190612b38565b60405180910390fd5b6000600460003373ffffffffffffffffffffffffffffffffffffffff1673ffffffffffffffffffffffffffffffffffffffff16815260200190815260200160002060008373ffffffffffffffffffffffffffffffffffffffff1673ffffffffffffffffffffffffffffffffffffffff16815260200190815260200160002060006101000a81548160ff0219169083151502179055506040518060400160405280600481526020017f4e6f6e6500000000000000000000000000000000000000000000000000000000815250600560008373ffffffffffffffffffffffffffffffffffffffff1673ffffffffffffffffffffffffffffffffffffffff16815260200190815260200160002060003373ffffffffffffffffffffffffffffffffffffffff1673ffffffffffffffffffffffffffffffffffffffff168152602001908152602001600020908161142d9190612dd0565b508073ffffffffffffffffffffffffffffffffffffffff163373ffffffffffffffffffffffffffffffffffffffff167f825c8be24eb0df19500f63e86c29e7d0d951e73056b889b891d85e40938d9b6e60405160405180910390a350565b6060600060028054905067ffffffffffffffff8111156114ae576114ad61233a565b5b6040519080825280602002602001820160405280156114e757816020015b6114d4612247565b8152602001906001900390816114cc5790505b50905060005b6002805490508110156116af5760008060028381548110611511576115106130be565b5b9060005260206000200160009054906101000a900473ffffffffffffffffffffffffffffffffffffffff1673ffffffffffffffffffffffffffffffffffffffff1673ffffffffffffffffffffffffffffffffffffffff16815260200190815260200160002060405180606001604052908160008201805461159190612bf3565b80601f01602080910402602001604051908101604052809291908181526020018280546115bd90612bf3565b801561160a5780601f106115df5761010080835404028352916020019161160a565b820191906000526020600020905b8154815290600101906020018083116115ed57829003601f168201915b505050505081526020016001820160009054906101000a900473ffffffffffffffffffffffffffffffffffffffff1673ffffffffffffffffffffffffffffffffffffffff1673ffffffffffffffffffffffffffffffffffffffff1681526020016001820160149054906101000a900460ff161515151581525050828281518110611697576116966130be565b5b602002602001018190525080806001019150506114ed565b508091505090565b6000803373ffffffffffffffffffffffffffffffffffffffff1673ffffffffffffffffffffffffffffffffffffffff16815260200190815260200160002060010160149054906101000a900460ff1615611746576040517f08c379a000000000000000000000000000000000000000000000000000000000815260040161173d90613139565b60405180910390fd5b600160003373ffffffffffffffffffffffffffffffffffffffff1673ffffffffffffffffffffffffffffffffffffffff16815260200190815260200160002060020160009054906101000a900460ff16156117d6576040517f08c379a00000000000000000000000000000000000000000000000000000000081526004016117cd906131a5565b60405180910390fd5b60405180606001604052808281526020013373ffffffffffffffffffffffffffffffffffffffff168152602001600115158152506000803373ffffffffffffffffffffffffffffffffffffffff1673ffffffffffffffffffffffffffffffffffffffff168152602001908152602001600020600082015181600001908161185d9190612dd0565b5060208201518160010160006101000a81548173ffffffffffffffffffffffffffffffffffffffff021916908373ffffffffffffffffffffffffffffffffffffffff16021790555060408201518160010160146101000a81548160ff0219169083151502179055509050506002339080600181540180825580915050600190039060005260206000200160009091909190916101000a81548173ffffffffffffffffffffffffffffffffffffffff021916908373ffffffffffffffffffffffffffffffffffffffff1602179055503373ffffffffffffffffffffffffffffffffffffffff167f3d39b9dc3cc28f0852c205a5818a351f20e13393f499c9a7ce42faee19843ac38260405161197191906125e8565b60405180910390a250565b6002818154811061198c57600080fd5b906000526020600020016000915054906101000a900473ffffffffffffffffffffffffffffffffffffffff1681565b6000803373ffffffffffffffffffffffffffffffffffffffff1673ffffffffffffffffffffffffffffffffffffffff16815260200190815260200160002060010160149054906101000a900460ff16611a49576040517f08c379a0000000000000000000000000000000000000000000000000000000008152600401611a4090613211565b60405180910390fd5b600460008273ffffffffffffffffffffffffffffffffffffffff1673ffffffffffffffffffffffffffffffffffffffff16815260200190815260200160002060003373ffffffffffffffffffffffffffffffffffffffff1673ffffffffffffffffffffffffffffffffffffffff16815260200190815260200160002060009054906101000a900460ff16611b12576040517f08c379a0000000000000000000000000000000000000000000000000000000008152600401611b0990612f5a565b60405180910390fd5b6040518060400160405280600881526020017f52656a6563746564000000000000000000000000000000000000000000000000815250600560003373ffffffffffffffffffffffffffffffffffffffff1673ffffffffffffffffffffffffffffffffffffffff16815260200190815260200160002060008373ffffffffffffffffffffffffffffffffffffffff1673ffffffffffffffffffffffffffffffffffffffff1681526020019081526020016000209081611bd09190612dd0565b503373ffffffffffffffffffffffffffffffffffffffff168173ffffffffffffffffffffffffffffffffffffffff167fc7c5af31150091ef812afcddd1e5ff07bbd87d8ec31cb88b94e533f5d4678c8f604051611c2c9061327d565b60405180910390a350565b60038181548110611c4757600080fd5b906000526020600020016000915054906101000a900473ffffffffffffffffffffffffffffffffffffffff1681565b60608060606000803373ffffffffffffffffffffffffffffffffffffffff1673ffffffffffffffffffffffffffffffffffffffff16815260200190815260200160002060010160149054906101000a900460ff16611d09576040517f08c379a0000000000000000000000000000000000000000000000000000000008152600401611d00906132e9565b60405180910390fd5b600460008573ffffffffffffffffffffffffffffffffffffffff1673ffffffffffffffffffffffffffffffffffffffff16815260200190815260200160002060003373ffffffffffffffffffffffffffffffffffffffff1673ffffffffffffffffffffffffffffffffffffffff16815260200190815260200160002060009054906101000a900460ff16611dd2576040517f08c379a0000000000000000000000000000000000000000000000000000000008152600401611dc990613355565b60405180910390fd5b600160008573ffffffffffffffffffffffffffffffffffffffff1673ffffffffffffffffffffffffffffffffffffffff168152602001908152602001600020600001600160008673ffffffffffffffffffffffffffffffffffffffff1673ffffffffffffffffffffffffffffffffffffffff168152602001908152602001600020600101600560003373ffffffffffffffffffffffffffffffffffffffff1673ffffffffffffffffffffffffffffffffffffffff16815260200190815260200160002060008773ffffffffffffffffffffffffffffffffffffffff1673ffffffffffffffffffffffffffffffffffffffff168152602001908152602001600020828054611ede90612bf3565b80601f0160208091040260200160405190810160405280929190818152602001828054611f0a90612bf3565b8015611f575780601f10611f2c57610100808354040283529160200191611f57565b820191906000526020600020905b815481529060010190602001808311611f3a57829003601f168201915b50505050509250818054611f6a90612bf3565b80601f0160208091040260200160405190810160405280929190818152602001828054611f9690612bf3565b8015611fe35780601f10611fb857610100808354040283529160200191611fe3565b820191906000526020600020905b815481529060010190602001808311611fc657829003601f168201915b50505050509150808054611ff690612bf3565b80601f016020809104026020016040519081016040528092919081815260200182805461202290612bf3565b801561206f5780601f106120445761010080835404028352916020019161206f565b820191906000526020600020905b81548152906001019060200180831161205257829003601f168201915b505050505090509250925092509193909250565b60606000600560008473ffffffffffffffffffffffffffffffffffffffff1673ffffffffffffffffffffffffffffffffffffffff16815260200190815260200160002060008573ffffffffffffffffffffffffffffffffffffffff1673ffffffffffffffffffffffffffffffffffffffff168152602001908152602001600020600460008673ffffffffffffffffffffffffffffffffffffffff1673ffffffffffffffffffffffffffffffffffffffff16815260200190815260200160002060008573ffffffffffffffffffffffffffffffffffffffff1673ffffffffffffffffffffffffffffffffffffffff16815260200190815260200160002060009054906101000a900460ff1681805461219990612bf3565b80601f01602080910402602001604051908101604052809291908181526020018280546121c590612bf3565b80156122125780601f106121e757610100808354040283529160200191612212565b820191906000526020600020905b8154815290600101906020018083116121f557829003601f168201915b50505050509150915091509250929050565b604051806060016040528060608152602001606081526020016000151581525090565b604051806060016040528060608152602001600073ffffffffffffffffffffffffffffffffffffffff1681526020016000151581525090565b6000604051905090565b600080fd5b600080fd5b600073ffffffffffffffffffffffffffffffffffffffff82169050919050565b60006122bf82612294565b9050919050565b6122cf816122b4565b81146122da57600080fd5b50565b6000813590506122ec816122c6565b92915050565b6000602082840312156123085761230761228a565b5b6000612316848285016122dd565b91505092915050565b600080fd5b600080fd5b6000601f19601f8301169050919050565b7f4e487b7100000000000000000000000000000000000000000000000000000000600052604160045260246000fd5b61237282612329565b810181811067ffffffffffffffff821117156123915761239061233a565b5b80604052505050565b60006123a4612280565b90506123b08282612369565b919050565b600067ffffffffffffffff8211156123d0576123cf61233a565b5b6123d982612329565b9050602081019050919050565b82818337600083830152505050565b6000612408612403846123b5565b61239a565b90508281526020810184848401111561242457612423612324565b5b61242f8482856123e6565b509392505050565b600082601f83011261244c5761244b61231f565b5b813561245c8482602086016123f5565b91505092915050565b60006020828403121561247b5761247a61228a565b5b600082013567ffffffffffffffff8111156124995761249861228f565b5b6124a584828501612437565b91505092915050565b600080604083850312156124c5576124c461228a565b5b60006124d3858286016122dd565b92505060206124e4858286016122dd565b9150509250929050565b60008115159050919050565b612503816124ee565b82525050565b600060208201905061251e60008301846124fa565b92915050565b600081519050919050565b600082825260208201905092915050565b60005b8381101561255e578082015181840152602081019050612543565b60008484015250505050565b600061257582612524565b61257f818561252f565b935061258f818560208601612540565b61259881612329565b840191505092915050565b600060608201905081810360008301526125bd818661256a565b905081810360208301526125d1818561256a565b90506125e060408301846124fa565b949350505050565b60006020820190508181036000830152612602818461256a565b905092915050565b600081519050919050565b600082825260208201905092915050565b6000819050602082019050919050565b600082825260208201905092915050565b600061265282612524565b61265c8185612636565b935061266c818560208601612540565b61267581612329565b840191505092915050565b612689816124ee565b82525050565b600060608301600083015184820360008601526126ac8282612647565b915050602083015184820360208601526126c68282612647565b91505060408301516126db6040860182612680565b508091505092915050565b60006126f2838361268f565b905092915050565b6000602082019050919050565b60006127128261260a565b61271c8185612615565b93508360208202850161272e85612626565b8060005b8581101561276a578484038952815161274b85826126e6565b9450612756836126fa565b925060208a01995050600181019050612732565b50829750879550505050505092915050565b600081519050919050565b600082825260208201905092915050565b6000819050602082019050919050565b6127b1816122b4565b82525050565b60006127c383836127a8565b60208301905092915050565b6000602082019050919050565b60006127e78261277c565b6127f18185612787565b93506127fc83612798565b8060005b8381101561282d57815161281488826127b7565b975061281f836127cf565b925050600181019050612800565b5085935050505092915050565b600060408201905081810360008301526128548185612707565b9050818103602083015261286881846127dc565b90509392505050565b61287a816122b4565b82525050565b6000606082019050818103600083015261289a818661256a565b90506128a96020830185612871565b6128b660408301846124fa565b949350505050565b600081519050919050565b600082825260208201905092915050565b6000819050602082019050919050565b600060608301600083015184820360008601526129078282612647565b915050602083015161291c60208601826127a8565b50604083015161292f6040860182612680565b508091505092915050565b600061294683836128ea565b905092915050565b6000602082019050919050565b6000612966826128be565b61297081856128c9565b935083602082028501612982856128da565b8060005b858110156129be578484038952815161299f858261293a565b94506129aa8361294e565b925060208a01995050600181019050612986565b50829750879550505050505092915050565b600060208201905081810360008301526129ea818461295b565b905092915050565b6000819050919050565b612a05816129f2565b8114612a1057600080fd5b50565b600081359050612a22816129fc565b92915050565b600060208284031215612a3e57612a3d61228a565b5b6000612a4c84828501612a13565b91505092915050565b6000602082019050612a6a6000830184612871565b92915050565b60006060820190508181036000830152612a8a818661256a565b90508181036020830152612a9e818561256a565b90508181036040830152612ab2818461256a565b9050949350505050565b60006040820190508181036000830152612ad6818561256a565b9050612ae560208301846124fa565b9392505050565b7f437573746f6d6572206e6f742072656769737465726564000000000000000000600082015250565b6000612b2260178361252f565b9150612b2d82612aec565b602082019050919050565b60006020820190508181036000830152612b5181612b15565b9050919050565b7f5461726765742062616e6b206973206e6f742072656769737465726564000000600082015250565b6000612b8e601d8361252f565b9150612b9982612b58565b602082019050919050565b60006020820190508181036000830152612bbd81612b81565b9050919050565b7f4e487b7100000000000000000000000000000000000000000000000000000000600052602260045260246000fd5b60006002820490506001821680612c0b57607f821691505b602082108103612c1e57612c1d612bc4565b5b50919050565b60008190508160005260206000209050919050565b60006020601f8301049050919050565b600082821b905092915050565b600060088302612c867fffffffffffffffffffffffffffffffffffffffffffffffffffffffffffffffff82612c49565b612c908683612c49565b95508019841693508086168417925050509392505050565b6000819050919050565b6000612ccd612cc8612cc3846129f2565b612ca8565b6129f2565b9050919050565b6000819050919050565b612ce783612cb2565b612cfb612cf382612cd4565b848454612c56565b825550505050565b600090565b612d10612d03565b612d1b818484612cde565b505050565b5b81811015612d3f57612d34600082612d08565b600181019050612d21565b5050565b601f821115612d8457612d5581612c24565b612d5e84612c39565b81016020851015612d6d578190505b612d81612d7985612c39565b830182612d20565b50505b505050565b600082821c905092915050565b6000612da760001984600802612d89565b1980831691505092915050565b6000612dc08383612d96565b9150826002028217905092915050565b612dd982612524565b67ffffffffffffffff811115612df257612df161233a565b5b612dfc8254612bf3565b612e07828285612d43565b600060209050601f831160018114612e3a5760008415612e28578287015190505b612e328582612db4565b865550612e9a565b601f198416612e4886612c24565b60005b82811015612e7057848901518255600182019150602085019450602081019050612e4b565b86831015612e8d5784890151612e89601f891682612d96565b8355505b6001600288020188555050505b505050505050565b7f4f6e6c792062616e6b732063616e20617070726f766500000000000000000000600082015250565b6000612ed860168361252f565b9150612ee382612ea2565b602082019050919050565b60006020820190508181036000830152612f0781612ecb565b9050919050565b7f4163636573732044656e69656400000000000000000000000000000000000000600082015250565b6000612f44600d8361252f565b9150612f4f82612f0e565b602082019050919050565b60006020820190508181036000830152612f7381612f37565b9050919050565b7f417070726f766564000000000000000000000000000000000000000000000000600082015250565b6000612fb060088361252f565b9150612fbb82612f7a565b602082019050919050565b60006020820190508181036000830152612fdf81612fa3565b9050919050565b7f437573746f6d657220616c726561647920657869737473000000000000000000600082015250565b600061301c60178361252f565b915061302782612fe6565b602082019050919050565b6000602082019050818103600083015261304b8161300f565b9050919050565b7f42616e6b732063616e6e6f7420626520637573746f6d65727300000000000000600082015250565b600061308860198361252f565b915061309382613052565b602082019050919050565b600060208201905081810360008301526130b78161307b565b9050919050565b7f4e487b7100000000000000000000000000000000000000000000000000000000600052603260045260246000fd5b7f42616e6b20616c72656164792065786973747300000000000000000000000000600082015250565b600061312360138361252f565b915061312e826130ed565b602082019050919050565b6000602082019050818103600083015261315281613116565b9050919050565b7f437573746f6d6572732063616e6e6f742062652062616e6b7300000000000000600082015250565b600061318f60198361252f565b915061319a82613159565b602082019050919050565b600060208201905081810360008301526131be81613182565b9050919050565b7f4f6e6c792062616e6b732063616e2072656a6563740000000000000000000000600082015250565b60006131fb60158361252f565b9150613206826131c5565b602082019050919050565b6000602082019050818103600083015261322a816131ee565b9050919050565b7f52656a6563746564000000000000000000000000000000000000000000000000600082015250565b600061326760088361252f565b915061327282613231565b602082019050919050565b600060208201905081810360008301526132968161325a565b9050919050565b7f4f6e6c792062616e6b732063616e207669657700000000000000000000000000600082015250565b60006132d360138361252f565b91506132de8261329d565b602082019050919050565b60006020820190508181036000830152613302816132c6565b9050919050565b7f4163636573732044656e69656420627920437573746f6d657200000000000000600082015250565b600061333f60198361252f565b915061334a82613309565b602082019050919050565b6000602082019050818103600083015261336e81613332565b905091905056fea264697066735822122038f843913a35cb46e7ec9a2b371300f2c758f118f7b6deb435ea694515580b7d64736f6c63430008180033",
  "linkReferences": {},
  "deployedLinkReferences": {}
}