{
  "_format": "hh-sol-artifact-1",
  "contractName": "KYC",
  "sourceName": "contracts/KYC.sol",
  "abi": [
    {
      "anonymous": false,
      "inputs": [
        {
          "indexed": true,
          "internalType": "address",
          "name": "bank",
          "type": "address"
        },
        {
          "indexed": false,
          "internalType": "string",
          "name": "name",
          "type": "string"
        }
      ],
      "name": "BankRegistered",
      "type": "event"
    },
    {
      "anonymous": false,
      "inputs": [
        {
          "indexed": true,
          "internalType": "address",
          "name": "customer",
          "type": "address"
        },
        {
          "indexed": false,
          "internalType": "string",
          "name": "name",
          "type": "string"
        }
      ],
      "name": "CustomerRegistered",
      "type": "event"
    },
    {
      "anonymous": false,
      "inputs": [
        {
          "indexed": true,
          "internalType": "uint256",
          "name": "requestId",
          "type": "uint256"
        },
        {
          "indexed": true,
          "internalType": "address",
          "name": "customer",
          "type": "address"
        }
      ],
      "name": "KYCAccepted",
      "type": "event"
    },
    {
      "anonymous": false,
      "inputs": [
        {
          "indexed": true,
          "internalType": "uint256",
          "name": "requestId",
          "type": "uint256"
        },
        {
          "indexed": true,
          "internalType": "address",
          "name": "bank",
          "type": "address"
        },
        {
          "indexed": true,
          "internalType": "address",
          "name": "customer",
          "type": "address"
        }
      ],
      "name": "KYCInitiated",
      "type": "event"
    },
    {
      "anonymous": false,
      "inputs": [
        {
          "indexed": true,
          "internalType": "uint256",
          "name": "requestId",
          "type": "uint256"
        },
        {
          "indexed": true,
          "internalType": "address",
          "name": "bank",
          "type": "address"
        }
      ],
      "name": "KYCRejected",
      "type": "event"
    },
    {
      "anonymous": false,
      "inputs": [
        {
          "indexed": true,
          "internalType": "uint256",
          "name": "requestId",
          "type": "uint256"
        },
        {
          "indexed": true,
          "internalType": "address",
          "name": "customer",
          "type": "address"
        },
        {
          "indexed": false,
          "internalType": "string",
          "name": "documentHash",
          "type": "string"
        }
      ],
      "name": "KYCSubmitted",
      "type": "event"
    },
    {
      "anonymous": false,
      "inputs": [
        {
          "indexed": true,
          "internalType": "uint256",
          "name": "requestId",
          "type": "uint256"
        },
        {
          "indexed": true,
          "internalType": "address",
          "name": "bank",
          "type": "address"
        }
      ],
      "name": "KYCVerified",
      "type": "event"
    },
    {
      "inputs": [
        {
          "internalType": "uint256",
          "name": "_requestId",
          "type": "uint256"
        }
      ],
      "name": "acceptRequest",
      "outputs": [],
      "stateMutability": "nonpayable",
      "type": "function"
    },
    {
      "inputs": [
        {
          "internalType": "address",
          "name": "",
          "type": "address"
        }
      ],
      "name": "bankNames",
      "outputs": [
        {
          "internalType": "string",
          "name": "",
          "type": "string"
        }
      ],
      "stateMutability": "view",
      "type": "function"
    },
    {
      "inputs": [
        {
          "internalType": "address",
          "name": "",
          "type": "address"
        },
        {
          "internalType": "uint256",
          "name": "",
          "type": "uint256"
        }
      ],
      "name": "bankRequests",
      "outputs": [
        {
          "internalType": "uint256",
          "name": "",
          "type": "uint256"
        }
      ],
      "stateMutability": "view",
      "type": "function"
    },
    {
      "inputs": [
        {
          "internalType": "address",
          "name": "",
          "type": "address"
        }
      ],
      "name": "customerNames",
      "outputs": [
        {
          "internalType": "string",
          "name": "",
          "type": "string"
        }
      ],
      "stateMutability": "view",
      "type": "function"
    },
    {
      "inputs": [
        {
          "internalType": "address",
          "name": "",
          "type": "address"
        },
        {
          "internalType": "uint256",
          "name": "",
          "type": "uint256"
        }
      ],
      "name": "customerRequests",
      "outputs": [
        {
          "internalType": "uint256",
          "name": "",
          "type": "uint256"
        }
      ],
      "stateMutability": "view",
      "type": "function"
    },
    {
      "inputs": [],
      "name": "getAllBanks",
      "outputs": [
        {
          "internalType": "address[]",
          "name": "",
          "type": "address[]"
        },
        {
          "internalType": "string[]",
          "name": "",
          "type": "string[]"
        }
      ],
      "stateMutability": "view",
      "type": "function"
    },
    {
      "inputs": [],
      "name": "getAllCustomers",
      "outputs": [
        {
          "internalType": "address[]",
          "name": "",
          "type": "address[]"
        },
        {
          "internalType": "string[]",
          "name": "",
          "type": "string[]"
        }
      ],
      "stateMutability": "view",
      "type": "function"
    },
    {
      "inputs": [
        {
          "internalType": "address",
          "name": "_bank",
          "type": "address"
        }
      ],
      "name": "getBankRequestIds",
      "outputs": [
        {
          "internalType": "uint256[]",
          "name": "",
          "type": "uint256[]"
        }
      ],
      "stateMutability": "view",
      "type": "function"
    },
    {
      "inputs": [
        {
          "internalType": "address",
          "name": "_customer",
          "type": "address"
        }
      ],
      "name": "getCustomerRequestIds",
      "outputs": [
        {
          "internalType": "uint256[]",
          "name": "",
          "type": "uint256[]"
        }
      ],
      "stateMutability": "view",
      "type": "function"
    },
    {
      "inputs": [
        {
          "internalType": "uint256",
          "name": "_id",
          "type": "uint256"
        }
      ],
      "name": "getRequest",
      "outputs": [
        {
          "components": [
            {
              "internalType": "address",
              "name": "bank",
              "type": "address"
            },
            {
              "internalType": "address",
              "name": "customer",
              "type": "address"
            },
            {
              "internalType": "enum KYC.Status",
              "name": "status",
              "type": "uint8"
            },
            {
              "internalType": "string",
              "name": "documentHash",
              "type": "string"
            },
            {
              "internalType": "uint256",
              "name": "createdAt",
              "type": "uint256"
            },
            {
              "internalType": "uint256",
              "name": "updatedAt",
              "type": "uint256"
            }
          ],
          "internalType": "struct KYC.KYCRequest",
          "name": "",
          "type": "tuple"
        }
      ],
      "stateMutability": "view",
      "type": "function"
    },
    {
      "inputs": [
        {
          "internalType": "address",
          "name": "_customer",
          "type": "address"
        }
      ],
      "name": "initiateKYC",
      "outputs": [
        {
          "internalType": "uint256",
          "name": "",
          "type": "uint256"
        }
      ],
      "stateMutability": "nonpayable",
      "type": "function"
    },
    {
      "inputs": [
        {
          "internalType": "address",
          "name": "",
          "type": "address"
        }
      ],
      "name": "isBank",
      "outputs": [
        {
          "internalType": "bool",
          "name": "",
          "type": "bool"
        }
      ],
      "stateMutability": "view",
      "type": "function"
    },
    {
      "inputs": [
        {
          "internalType": "address",
          "name": "",
          "type": "address"
        }
      ],
      "name": "isCustomer",
      "outputs": [
        {
          "internalType": "bool",
          "name": "",
          "type": "bool"
        }
      ],
      "stateMutability": "view",
      "type": "function"
    },
    {
      "inputs": [
        {
          "internalType": "string",
          "name": "_name",
          "type": "string"
        }
      ],
      "name": "registerBank",
      "outputs": [],
      "stateMutability": "nonpayable",
      "type": "function"
    },
    {
      "inputs": [
        {
          "internalType": "string",
          "name": "_name",
          "type": "string"
        }
      ],
      "name": "registerCustomer",
      "outputs": [],
      "stateMutability": "nonpayable",
      "type": "function"
    },
    {
      "inputs": [
        {
          "internalType": "uint256",
          "name": "",
          "type": "uint256"
        }
      ],
      "name": "registeredBanks",
      "outputs": [
        {
          "internalType": "address",
          "name": "",
          "type": "address"
        }
      ],
      "stateMutability": "view",
      "type": "function"
    },
    {
      "inputs": [
        {
          "internalType": "uint256",
          "name": "",
          "type": "uint256"
        }
      ],
      "name": "registeredCustomers",
      "outputs": [
        {
          "internalType": "address",
          "name": "",
          "type": "address"
        }
      ],
      "stateMutability": "view",
      "type": "function"
    },
    {
      "inputs": [
        {
          "internalType": "uint256",
          "name": "_requestId",
          "type": "uint256"
        }
      ],
      "name": "rejectKYC",
      "outputs": [],
      "stateMutability": "nonpayable",
      "type": "function"
    },
    {
      "inputs": [],
      "name": "requestCount",
      "outputs": [
        {
          "internalType": "uint256",
          "name": "",
          "type": "uint256"
        }
      ],
      "stateMutability": "view",
      "type": "function"
    },
    {
      "inputs": [
        {
          "internalType": "uint256",
          "name": "",
          "type": "uint256"
        }
      ],
      "name": "requests",
      "outputs": [
        {
          "internalType": "address",
          "name": "bank",
          "type": "address"
        },
        {
          "internalType": "address",
          "name": "customer",
          "type": "address"
        },
        {
          "internalType": "enum KYC.Status",
          "name": "status",
          "type": "uint8"
        },
        {
          "internalType": "string",
          "name": "documentHash",
          "type": "string"
        },
        {
          "internalType": "uint256",
          "name": "createdAt",
          "type": "uint256"
        },
        {
          "internalType": "uint256",
          "name": "updatedAt",
          "type": "uint256"
        }
      ],
      "stateMutability": "view",
      "type": "function"
    },
    {
      "inputs": [
        {
          "internalType": "uint256",
          "name": "_requestId",
          "type": "uint256"
        },
        {
          "internalType": "string",
          "name": "_docHash",
          "type": "string"
        }
      ],
      "name": "submitKYC",
      "outputs": [],
      "stateMutability": "nonpayable",
      "type": "function"
    },
    {
      "inputs": [
        {
          "internalType": "uint256",
          "name": "_requestId",
          "type": "uint256"
        }
      ],
      "name": "verifyKYC",
      "outputs": [],
      "stateMutability": "nonpayable",
      "type": "function"
    }
  ],
  "bytecode": "0x608060405234801561001057600080fd5b506132f1806100206000396000f3fe608060405234801561001057600080fd5b50600436106101425760003560e01c80637da67ba8116100b8578063aecec9851161007c578063aecec985146103b4578063b245a9ed146103d0578063b8f3c14914610400578063c58343ef14610430578063ec676a4914610460578063fb8cdcdd1461049057610142565b80637da67ba8146102f557806381d12c5814610314578063832a715a14610349578063951c8a07146103795780639eef67be1461039857610142565b80634ba1f0981161010a5780634ba1f0981461020f5780634d2c0b171461022b578063567fee111461025b5780635badbe4c1461028b5780635daa63bd146102a957806367c2b259146102d957610142565b80631378d8061461014757806316be5efa1461016357806328fd5e831461017f5780633f6af805146101af57806347a2a26e146101df575b600080fd5b610161600480360381019061015c91906121d7565b6104c0565b005b61017d60048036038101906101789190612256565b610733565b005b610199600480360381019061019491906122e1565b6108d1565b6040516101a69190612329565b60405180910390f35b6101c960048036038101906101c49190612256565b6108f1565b6040516101d69190612353565b60405180910390f35b6101f960048036038101906101f491906122e1565b610930565b604051610206919061242c565b60405180910390f35b61022960048036038101906102249190612256565b6109c7565b005b610245600480360381019061024091906122e1565b610b65565b60405161025291906124cd565b60405180910390f35b610275600480360381019061027091906122e1565b610c05565b604051610282919061242c565b60405180910390f35b610293610c9c565b6040516102a091906124fe565b60405180910390f35b6102c360048036038101906102be91906122e1565b610ca2565b6040516102d091906124fe565b60405180910390f35b6102f360048036038101906102ee9190612519565b61107f565b005b6102fd61127e565b60405161030b92919061273f565b60405180910390f35b61032e60048036038101906103299190612256565b6114ae565b604051610340969594939291906127ed565b60405180910390f35b610363600480360381019061035e9190612855565b6115bf565b60405161037091906124fe565b60405180910390f35b6103816115f0565b60405161038f92919061273f565b60405180910390f35b6103b260048036038101906103ad9190612256565b611820565b005b6103ce60048036038101906103c991906121d7565b611aad565b005b6103ea60048036038101906103e59190612855565b611d20565b6040516103f791906124fe565b60405180910390f35b61041a60048036038101906104159190612256565b611d51565b6040516104279190612353565b60405180910390f35b61044a60048036038101906104459190612256565b611d90565b604051610457919061292d565b60405180910390f35b61047a600480360381019061047591906122e1565b611f49565b6040516104879190612329565b60405180910390f35b6104aa60048036038101906104a591906122e1565b611f69565b6040516104b791906124cd565b60405180910390f35b600560003373ffffffffffffffffffffffffffffffffffffffff1673ffffffffffffffffffffffffffffffffffffffff16815260200190815260200160002060009054906101000a900460ff161561054d576040517f08c379a00000000000000000000000000000000000000000000000000000000081526004016105449061299b565b60405180910390fd5b600460003373ffffffffffffffffffffffffffffffffffffffff1673ffffffffffffffffffffffffffffffffffffffff16815260200190815260200160002060009054906101000a900460ff16156105da576040517f08c379a00000000000000000000000000000000000000000000000000000000081526004016105d190612a07565b60405180910390fd5b6001600560003373ffffffffffffffffffffffffffffffffffffffff1673ffffffffffffffffffffffffffffffffffffffff16815260200190815260200160002060006101000a81548160ff02191690831515021790555080600760003373ffffffffffffffffffffffffffffffffffffffff1673ffffffffffffffffffffffffffffffffffffffff168152602001908152602001600020908161067e9190612c33565b506009339080600181540180825580915050600190039060005260206000200160009091909190916101000a81548173ffffffffffffffffffffffffffffffffffffffff021916908373ffffffffffffffffffffffffffffffffffffffff1602179055503373ffffffffffffffffffffffffffffffffffffffff167f2bf7863d4068dda3123298d02ee28530519d2e96eaab6784f5f0b6184ddd20158260405161072891906124cd565b60405180910390a250565b600080600083815260200190815260200160002090503373ffffffffffffffffffffffffffffffffffffffff168160000160009054906101000a900473ffffffffffffffffffffffffffffffffffffffff1673ffffffffffffffffffffffffffffffffffffffff16146107db576040517f08c379a00000000000000000000000000000000000000000000000000000000081526004016107d290612d51565b60405180910390fd5b600360058111156107ef576107ee612776565b5b8160010160149054906101000a900460ff16600581111561081357610812612776565b5b14610853576040517f08c379a000000000000000000000000000000000000000000000000000000000815260040161084a90612dbd565b60405180910390fd5b60048160010160146101000a81548160ff0219169083600581111561087b5761087a612776565b5b02179055504281600401819055503373ffffffffffffffffffffffffffffffffffffffff16827f09076dc71b8e1a2d8d967615724355271ec3962c289fe781d3e8038f686e6bbe60405160405180910390a35050565b60056020528060005260406000206000915054906101000a900460ff1681565b6009818154811061090157600080fd5b906000526020600020016000915054906101000a900473ffffffffffffffffffffffffffffffffffffffff1681565b6060600260008373ffffffffffffffffffffffffffffffffffffffff1673ffffffffffffffffffffffffffffffffffffffff1681526020019081526020016000208054806020026020016040519081016040528092919081815260200182805480156109bb57602002820191906000526020600020905b8154815260200190600101908083116109a7575b50505050509050919050565b600080600083815260200190815260200160002090503373ffffffffffffffffffffffffffffffffffffffff168160010160009054906101000a900473ffffffffffffffffffffffffffffffffffffffff1673ffffffffffffffffffffffffffffffffffffffff1614610a6f576040517f08c379a0000000000000000000000000000000000000000000000000000000008152600401610a6690612d51565b60405180910390fd5b60016005811115610a8357610a82612776565b5b8160010160149054906101000a900460ff166005811115610aa757610aa6612776565b5b14610ae7576040517f08c379a0000000000000000000000000000000000000000000000000000000008152600401610ade90612e29565b60405180910390fd5b60028160010160146101000a81548160ff02191690836005811115610b0f57610b0e612776565b5b02179055504281600401819055503373ffffffffffffffffffffffffffffffffffffffff16827f3a5c846fb71ff362cc696a6d1d32fe448a61a8ee9d04f4918aebaf16debab8a060405160405180910390a35050565b60076020528060005260406000206000915090508054610b8490612a56565b80601f0160208091040260200160405190810160405280929190818152602001828054610bb090612a56565b8015610bfd5780601f10610bd257610100808354040283529160200191610bfd565b820191906000526020600020905b815481529060010190602001808311610be057829003601f168201915b505050505081565b6060600360008373ffffffffffffffffffffffffffffffffffffffff1673ffffffffffffffffffffffffffffffffffffffff168152602001908152602001600020805480602002602001604051908101604052809291908181526020018280548015610c9057602002820191906000526020600020905b815481526020019060010190808311610c7c575b50505050509050919050565b60015481565b6000600460003373ffffffffffffffffffffffffffffffffffffffff1673ffffffffffffffffffffffffffffffffffffffff16815260200190815260200160002060009054906101000a900460ff16610d30576040517f08c379a0000000000000000000000000000000000000000000000000000000008152600401610d2790612e95565b60405180910390fd5b600560008373ffffffffffffffffffffffffffffffffffffffff1673ffffffffffffffffffffffffffffffffffffffff16815260200190815260200160002060009054906101000a900460ff16610dbc576040517f08c379a0000000000000000000000000000000000000000000000000000000008152600401610db390612f01565b60405180910390fd5b600060016000815480929190610dd190612f50565b9190505590506040518060c001604052803373ffffffffffffffffffffffffffffffffffffffff1681526020018473ffffffffffffffffffffffffffffffffffffffff16815260200160016005811115610e2e57610e2d612776565b5b81526020016040518060200160405280600081525081526020014281526020014281525060008083815260200190815260200160002060008201518160000160006101000a81548173ffffffffffffffffffffffffffffffffffffffff021916908373ffffffffffffffffffffffffffffffffffffffff16021790555060208201518160010160006101000a81548173ffffffffffffffffffffffffffffffffffffffff021916908373ffffffffffffffffffffffffffffffffffffffff16021790555060408201518160010160146101000a81548160ff02191690836005811115610f1d57610f1c612776565b5b02179055506060820151816002019081610f379190612c33565b506080820151816003015560a08201518160040155905050600360003373ffffffffffffffffffffffffffffffffffffffff1673ffffffffffffffffffffffffffffffffffffffff168152602001908152602001600020819080600181540180825580915050600190039060005260206000200160009091909190915055600260008473ffffffffffffffffffffffffffffffffffffffff1673ffffffffffffffffffffffffffffffffffffffff1681526020019081526020016000208190806001815401808255809150506001900390600052602060002001600090919091909150558273ffffffffffffffffffffffffffffffffffffffff163373ffffffffffffffffffffffffffffffffffffffff16827fe1e94f42b3250b4725095c9accf5b47210a0bcd43edb5d2ba138428d101d938160405160405180910390a480915050919050565b600080600084815260200190815260200160002090503373ffffffffffffffffffffffffffffffffffffffff168160010160009054906101000a900473ffffffffffffffffffffffffffffffffffffffff1673ffffffffffffffffffffffffffffffffffffffff1614611127576040517f08c379a000000000000000000000000000000000000000000000000000000000815260040161111e90612d51565b60405180910390fd5b6002600581111561113b5761113a612776565b5b8160010160149054906101000a900460ff16600581111561115f5761115e612776565b5b1461119f576040517f08c379a000000000000000000000000000000000000000000000000000000000815260040161119690612fe4565b60405180910390fd5b60008251116111e3576040517f08c379a00000000000000000000000000000000000000000000000000000000081526004016111da90613050565b60405180910390fd5b818160020190816111f49190612c33565b5060038160010160146101000a81548160ff0219169083600581111561121d5761121c612776565b5b02179055504281600401819055503373ffffffffffffffffffffffffffffffffffffffff16837e15276262019552b82e49261d9116639ac926bafe87ebb563a8c9749a5ee1ea8460405161127191906124cd565b60405180910390a3505050565b606080600060098054905067ffffffffffffffff8111156112a2576112a16120ac565b5b6040519080825280602002602001820160405280156112d557816020015b60608152602001906001900390816112c05790505b50905060005b600980549050811015611419576007600060098381548110611300576112ff613070565b5b9060005260206000200160009054906101000a900473ffffffffffffffffffffffffffffffffffffffff1673ffffffffffffffffffffffffffffffffffffffff1673ffffffffffffffffffffffffffffffffffffffff168152602001908152602001600020805461137090612a56565b80601f016020809104026020016040519081016040528092919081815260200182805461139c90612a56565b80156113e95780601f106113be576101008083540402835291602001916113e9565b820191906000526020600020905b8154815290600101906020018083116113cc57829003601f168201915b505050505082828151811061140157611400613070565b5b602002602001018190525080806001019150506112db565b506009818180548060200260200160405190810160405280929190818152602001828054801561149e57602002820191906000526020600020905b8160009054906101000a900473ffffffffffffffffffffffffffffffffffffffff1673ffffffffffffffffffffffffffffffffffffffff1681526020019060010190808311611454575b5050505050915092509250509091565b60006020528060005260406000206000915090508060000160009054906101000a900473ffffffffffffffffffffffffffffffffffffffff16908060010160009054906101000a900473ffffffffffffffffffffffffffffffffffffffff16908060010160149054906101000a900460ff169080600201805461153090612a56565b80601f016020809104026020016040519081016040528092919081815260200182805461155c90612a56565b80156115a95780601f1061157e576101008083540402835291602001916115a9565b820191906000526020600020905b81548152906001019060200180831161158c57829003601f168201915b5050505050908060030154908060040154905086565b600260205281600052604060002081815481106115db57600080fd5b90600052602060002001600091509150505481565b606080600060088054905067ffffffffffffffff811115611614576116136120ac565b5b60405190808252806020026020018201604052801561164757816020015b60608152602001906001900390816116325790505b50905060005b60088054905081101561178b57600660006008838154811061167257611671613070565b5b9060005260206000200160009054906101000a900473ffffffffffffffffffffffffffffffffffffffff1673ffffffffffffffffffffffffffffffffffffffff1673ffffffffffffffffffffffffffffffffffffffff16815260200190815260200160002080546116e290612a56565b80601f016020809104026020016040519081016040528092919081815260200182805461170e90612a56565b801561175b5780601f106117305761010080835404028352916020019161175b565b820191906000526020600020905b81548152906001019060200180831161173e57829003601f168201915b505050505082828151811061177357611772613070565b5b6020026020010181905250808060010191505061164d565b506008818180548060200260200160405190810160405280929190818152602001828054801561181057602002820191906000526020600020905b8160009054906101000a900473ffffffffffffffffffffffffffffffffffffffff1673ffffffffffffffffffffffffffffffffffffffff16815260200190600101908083116117c6575b5050505050915092509250509091565b600080600083815260200190815260200160002090503373ffffffffffffffffffffffffffffffffffffffff168160000160009054906101000a900473ffffffffffffffffffffffffffffffffffffffff1673ffffffffffffffffffffffffffffffffffffffff16146118c8576040517f08c379a00000000000000000000000000000000000000000000000000000000081526004016118bf90612d51565b60405180910390fd5b600060058111156118dc576118db612776565b5b8160010160149054906101000a900460ff166005811115611900576118ff612776565b5b03611940576040517f08c379a0000000000000000000000000000000000000000000000000000000008152600401611937906130eb565b60405180910390fd5b6004600581111561195457611953612776565b5b8160010160149054906101000a900460ff16600581111561197857611977612776565b5b036119b8576040517f08c379a00000000000000000000000000000000000000000000000000000000081526004016119af90613157565b60405180910390fd5b6005808111156119cb576119ca612776565b5b8160010160149054906101000a900460ff1660058111156119ef576119ee612776565b5b03611a2f576040517f08c379a0000000000000000000000000000000000000000000000000000000008152600401611a26906131c3565b60405180910390fd5b60058160010160146101000a81548160ff02191690836005811115611a5757611a56612776565b5b02179055504281600401819055503373ffffffffffffffffffffffffffffffffffffffff16827f9d524bd04f9a33393607f0fdafe61e847a45696418cf82b47663f0e3027f4c8a60405160405180910390a35050565b600460003373ffffffffffffffffffffffffffffffffffffffff1673ffffffffffffffffffffffffffffffffffffffff16815260200190815260200160002060009054906101000a900460ff1615611b3a576040517f08c379a0000000000000000000000000000000000000000000000000000000008152600401611b319061322f565b60405180910390fd5b600560003373ffffffffffffffffffffffffffffffffffffffff1673ffffffffffffffffffffffffffffffffffffffff16815260200190815260200160002060009054906101000a900460ff1615611bc7576040517f08c379a0000000000000000000000000000000000000000000000000000000008152600401611bbe9061329b565b60405180910390fd5b6001600460003373ffffffffffffffffffffffffffffffffffffffff1673ffffffffffffffffffffffffffffffffffffffff16815260200190815260200160002060006101000a81548160ff02191690831515021790555080600660003373ffffffffffffffffffffffffffffffffffffffff1673ffffffffffffffffffffffffffffffffffffffff1681526020019081526020016000209081611c6b9190612c33565b506008339080600181540180825580915050600190039060005260206000200160009091909190916101000a81548173ffffffffffffffffffffffffffffffffffffffff021916908373ffffffffffffffffffffffffffffffffffffffff1602179055503373ffffffffffffffffffffffffffffffffffffffff167f3d39b9dc3cc28f0852c205a5818a351f20e13393f499c9a7ce42faee19843ac382604051611d1591906124cd565b60405180910390a250565b60036020528160005260406000208181548110611d3c57600080fd5b90600052602060002001600091509150505481565b60088181548110611d6157600080fd5b906000526020600020016000915054906101000a900473ffffffffffffffffffffffffffffffffffffffff1681565b611d98612009565b6000808381526020019081526020016000206040518060c00160405290816000820160009054906101000a900473ffffffffffffffffffffffffffffffffffffffff1673ffffffffffffffffffffffffffffffffffffffff1673ffffffffffffffffffffffffffffffffffffffff1681526020016001820160009054906101000a900473ffffffffffffffffffffffffffffffffffffffff1673ffffffffffffffffffffffffffffffffffffffff1673ffffffffffffffffffffffffffffffffffffffff1681526020016001820160149054906101000a900460ff166005811115611e8657611e85612776565b5b6005811115611e9857611e97612776565b5b8152602001600282018054611eac90612a56565b80601f0160208091040260200160405190810160405280929190818152602001828054611ed890612a56565b8015611f255780601f10611efa57610100808354040283529160200191611f25565b820191906000526020600020905b815481529060010190602001808311611f0857829003601f168201915b50505050508152602001600382015481526020016004820154815250509050919050565b60046020528060005260406000206000915054906101000a900460ff1681565b60066020528060005260406000206000915090508054611f8890612a56565b80601f0160208091040260200160405190810160405280929190818152602001828054611fb490612a56565b80156120015780601f10611fd657610100808354040283529160200191612001565b820191906000526020600020905b815481529060010190602001808311611fe457829003601f168201915b505050505081565b6040518060c00160405280600073ffffffffffffffffffffffffffffffffffffffff168152602001600073ffffffffffffffffffffffffffffffffffffffff1681526020016000600581111561206257612061612776565b5b81526020016060815260200160008152602001600081525090565b6000604051905090565b600080fd5b600080fd5b600080fd5b600080fd5b6000601f19601f8301169050919050565b7f4e487b7100000000000000000000000000000000000000000000000000000000600052604160045260246000fd5b6120e48261209b565b810181811067ffffffffffffffff82111715612103576121026120ac565b5b80604052505050565b600061211661207d565b905061212282826120db565b919050565b600067ffffffffffffffff821115612142576121416120ac565b5b61214b8261209b565b9050602081019050919050565b82818337600083830152505050565b600061217a61217584612127565b61210c565b90508281526020810184848401111561219657612195612096565b5b6121a1848285612158565b509392505050565b600082601f8301126121be576121bd612091565b5b81356121ce848260208601612167565b91505092915050565b6000602082840312156121ed576121ec612087565b5b600082013567ffffffffffffffff81111561220b5761220a61208c565b5b612217848285016121a9565b91505092915050565b6000819050919050565b61223381612220565b811461223e57600080fd5b50565b6000813590506122508161222a565b92915050565b60006020828403121561226c5761226b612087565b5b600061227a84828501612241565b91505092915050565b600073ffffffffffffffffffffffffffffffffffffffff82169050919050565b60006122ae82612283565b9050919050565b6122be816122a3565b81146122c957600080fd5b50565b6000813590506122db816122b5565b92915050565b6000602082840312156122f7576122f6612087565b5b6000612305848285016122cc565b91505092915050565b60008115159050919050565b6123238161230e565b82525050565b600060208201905061233e600083018461231a565b92915050565b61234d816122a3565b82525050565b60006020820190506123686000830184612344565b92915050565b600081519050919050565b600082825260208201905092915050565b6000819050602082019050919050565b6123a381612220565b82525050565b60006123b5838361239a565b60208301905092915050565b6000602082019050919050565b60006123d98261236e565b6123e38185612379565b93506123ee8361238a565b8060005b8381101561241f57815161240688826123a9565b9750612411836123c1565b9250506001810190506123f2565b5085935050505092915050565b6000602082019050818103600083015261244681846123ce565b905092915050565b600081519050919050565b600082825260208201905092915050565b60005b8381101561248857808201518184015260208101905061246d565b60008484015250505050565b600061249f8261244e565b6124a98185612459565b93506124b981856020860161246a565b6124c28161209b565b840191505092915050565b600060208201905081810360008301526124e78184612494565b905092915050565b6124f881612220565b82525050565b600060208201905061251360008301846124ef565b92915050565b600080604083850312156125305761252f612087565b5b600061253e85828601612241565b925050602083013567ffffffffffffffff81111561255f5761255e61208c565b5b61256b858286016121a9565b9150509250929050565b600081519050919050565b600082825260208201905092915050565b6000819050602082019050919050565b6125aa816122a3565b82525050565b60006125bc83836125a1565b60208301905092915050565b6000602082019050919050565b60006125e082612575565b6125ea8185612580565b93506125f583612591565b8060005b8381101561262657815161260d88826125b0565b9750612618836125c8565b9250506001810190506125f9565b5085935050505092915050565b600081519050919050565b600082825260208201905092915050565b6000819050602082019050919050565b600082825260208201905092915050565b600061267b8261244e565b612685818561265f565b935061269581856020860161246a565b61269e8161209b565b840191505092915050565b60006126b58383612670565b905092915050565b6000602082019050919050565b60006126d582612633565b6126df818561263e565b9350836020820285016126f18561264f565b8060005b8581101561272d578484038952815161270e85826126a9565b9450612719836126bd565b925060208a019950506001810190506126f5565b50829750879550505050505092915050565b6000604082019050818103600083015261275981856125d5565b9050818103602083015261276d81846126ca565b90509392505050565b7f4e487b7100000000000000000000000000000000000000000000000000000000600052602160045260246000fd5b600681106127b6576127b5612776565b5b50565b60008190506127c7826127a5565b919050565b60006127d7826127b9565b9050919050565b6127e7816127cc565b82525050565b600060c0820190506128026000830189612344565b61280f6020830188612344565b61281c60408301876127de565b818103606083015261282e8186612494565b905061283d60808301856124ef565b61284a60a08301846124ef565b979650505050505050565b6000806040838503121561286c5761286b612087565b5b600061287a858286016122cc565b925050602061288b85828601612241565b9150509250929050565b61289e816127cc565b82525050565b600060c0830160008301516128bc60008601826125a1565b5060208301516128cf60208601826125a1565b5060408301516128e26040860182612895565b50606083015184820360608601526128fa8282612670565b915050608083015161290f608086018261239a565b5060a083015161292260a086018261239a565b508091505092915050565b6000602082019050818103600083015261294781846128a4565b905092915050565b7f416c7265616479207265676973746572656420617320637573746f6d65720000600082015250565b6000612985601e83612459565b91506129908261294f565b602082019050919050565b600060208201905081810360008301526129b481612978565b9050919050565b7f4164647265737320697320612062616e6b000000000000000000000000000000600082015250565b60006129f1601183612459565b91506129fc826129bb565b602082019050919050565b60006020820190508181036000830152612a20816129e4565b9050919050565b7f4e487b7100000000000000000000000000000000000000000000000000000000600052602260045260246000fd5b60006002820490506001821680612a6e57607f821691505b602082108103612a8157612a80612a27565b5b50919050565b60008190508160005260206000209050919050565b60006020601f8301049050919050565b600082821b905092915050565b600060088302612ae97fffffffffffffffffffffffffffffffffffffffffffffffffffffffffffffffff82612aac565b612af38683612aac565b95508019841693508086168417925050509392505050565b6000819050919050565b6000612b30612b2b612b2684612220565b612b0b565b612220565b9050919050565b6000819050919050565b612b4a83612b15565b612b5e612b5682612b37565b848454612ab9565b825550505050565b600090565b612b73612b66565b612b7e818484612b41565b505050565b5b81811015612ba257612b97600082612b6b565b600181019050612b84565b5050565b601f821115612be757612bb881612a87565b612bc184612a9c565b81016020851015612bd0578190505b612be4612bdc85612a9c565b830182612b83565b50505b505050565b600082821c905092915050565b6000612c0a60001984600802612bec565b1980831691505092915050565b6000612c238383612bf9565b9150826002028217905092915050565b612c3c8261244e565b67ffffffffffffffff811115612c5557612c546120ac565b5b612c5f8254612a56565b612c6a828285612ba6565b600060209050601f831160018114612c9d5760008415612c8b578287015190505b612c958582612c17565b865550612cfd565b601f198416612cab86612a87565b60005b82811015612cd357848901518255600182019150602085019450602081019050612cae565b86831015612cf05784890151612cec601f891682612bf9565b8355505b6001600288020188555050505b505050505050565b7f4e6f7420796f7572207265717565737400000000000000000000000000000000600082015250565b6000612d3b601083612459565b9150612d4682612d05565b602082019050919050565b60006020820190508181036000830152612d6a81612d2e565b9050919050565b7f537461747573206d757374206265205375626d69747465640000000000000000600082015250565b6000612da7601883612459565b9150612db282612d71565b602082019050919050565b60006020820190508181036000830152612dd681612d9a565b9050919050565b7f537461747573206d7573742062652050656e64696e6700000000000000000000600082015250565b6000612e13601683612459565b9150612e1e82612ddd565b602082019050919050565b60006020820190508181036000830152612e4281612e06565b9050919050565b7f4f6e6c792062616e6b732063616e20696e697469617465000000000000000000600082015250565b6000612e7f601783612459565b9150612e8a82612e49565b602082019050919050565b60006020820190508181036000830152612eae81612e72565b9050919050565b7f546172676574206973206e6f74206120637573746f6d65720000000000000000600082015250565b6000612eeb601883612459565b9150612ef682612eb5565b602082019050919050565b60006020820190508181036000830152612f1a81612ede565b9050919050565b7f4e487b7100000000000000000000000000000000000000000000000000000000600052601160045260246000fd5b6000612f5b82612220565b91507fffffffffffffffffffffffffffffffffffffffffffffffffffffffffffffffff8203612f8d57612f8c612f21565b5b600182019050919050565b7f537461747573206d757374206265204163636570746564000000000000000000600082015250565b6000612fce601783612459565b9150612fd982612f98565b602082019050919050565b60006020820190508181036000830152612ffd81612fc1565b9050919050565b7f486173682063616e6e6f7420626520656d707479000000000000000000000000600082015250565b600061303a601483612459565b915061304582613004565b602082019050919050565b600060208201905081810360008301526130698161302d565b9050919050565b7f4e487b7100000000000000000000000000000000000000000000000000000000600052603260045260246000fd5b7f4e6f207265717565737420666f756e6400000000000000000000000000000000600082015250565b60006130d5601083612459565b91506130e08261309f565b602082019050919050565b60006020820190508181036000830152613104816130c8565b9050919050565b7f416c726561647920766572696669656400000000000000000000000000000000600082015250565b6000613141601083612459565b915061314c8261310b565b602082019050919050565b6000602082019050818103600083015261317081613134565b9050919050565b7f416c72656164792072656a656374656400000000000000000000000000000000600082015250565b60006131ad601083612459565b91506131b882613177565b602082019050919050565b600060208201905081810360008301526131dc816131a0565b9050919050565b7f416c726561647920726567697374657265642061732062616e6b000000000000600082015250565b6000613219601a83612459565b9150613224826131e3565b602082019050919050565b600060208201905081810360008301526132488161320c565b9050919050565b7f41646472657373206973206120637573746f6d65720000000000000000000000600082015250565b6000613285601583612459565b91506132908261324f565b602082019050919050565b600060208201905081810360008301526132b481613278565b905091905056fea2646970667358221220baa7adacc24c3f5b128659dd3de922f72551ddbac94ec0b1a53bb848c2e7788764736f6c63430008180033",
  "linkReferences": {},
  "deployedLinkReferences": {}
}