{
  "_format": "hh-sol-artifact-1",
  "contractName": "KYC",
  "sourceName": "contracts/KYC.sol",
  "abi": [
    {
      "anonymous": false,
      "inputs": [
        {
          "indexed": true,
          "internalType": "address",
          "name": "customerAddress",
          "type": "address"
        },
        {
          "indexed": true,
          "internalType": "address",
          "name": "bankAddress",
          "type": "address"
        }
      ],
      "name": "AccessGranted",
      "type": "event"
    },
    {
      "anonymous": false,
      "inputs": [
        {
          "indexed": true,
          "internalType": "address",
          "name": "customerAddress",
          "type": "address"
        },
        {
          "indexed": true,
          "internalType": "address",
          "name": "bankAddress",
          "type": "address"
        }
      ],
      "name": "AccessRevoked",
      "type": "event"
    },
    {
      "anonymous": false,
      "inputs": [
        {
          "indexed": true,
          "internalType": "address",
          "name": "bankAddress",
          "type": "address"
        },
        {
          "indexed": false,
          "internalType": "string",
          "name": "name",
          "type": "string"
        }
      ],
      "name": "BankRegistered",
      "type": "event"
    },
    {
      "anonymous": false,
      "inputs": [
        {
          "indexed": true,
          "internalType": "address",
          "name": "customerAddress",
          "type": "address"
        },
        {
          "indexed": false,
          "internalType": "string",
          "name": "name",
          "type": "string"
        }
      ],
      "name": "CustomerRegistered",
      "type": "event"
    },
    {
      "anonymous": false,
      "inputs": [
        {
          "indexed": true,
          "internalType": "address",
          "name": "customerAddress",
          "type": "address"
        },
        {
          "indexed": true,
          "internalType": "address",
          "name": "bankAddress",
          "type": "address"
        },
        {
          "indexed": false,
          "internalType": "string",
          "name": "newStatus",
          "type": "string"
        }
      ],
      "name": "KYCStatusChanged",
      "type": "event"
    },
    {
      "inputs": [
        {
          "internalType": "address",
          "name": "_bankAddress",
          "type": "address"
        },
        {
          "internalType": "string",
          "name": "_message",
          "type": "string"
        }
      ],
      "name": "addFeedback",
      "outputs": [],
      "stateMutability": "nonpayable",
      "type": "function"
    },
    {
      "inputs": [
        {
          "internalType": "address",
          "name": "_customerAddress",
          "type": "address"
        }
      ],
      "name": "approveKYC",
      "outputs": [],
      "stateMutability": "nonpayable",
      "type": "function"
    },
    {
      "inputs": [
        {
          "internalType": "address",
          "name": "",
          "type": "address"
        },
        {
          "internalType": "address",
          "name": "",
          "type": "address"
        }
      ],
      "name": "bankCustomerStatus",
      "outputs": [
        {
          "internalType": "string",
          "name": "",
          "type": "string"
        }
      ],
      "stateMutability": "view",
      "type": "function"
    },
    {
      "inputs": [
        {
          "internalType": "address",
          "name": "",
          "type": "address"
        },
        {
          "internalType": "uint256",
          "name": "",
          "type": "uint256"
        }
      ],
      "name": "bankFeedbacks",
      "outputs": [
        {
          "internalType": "address",
          "name": "customer",
          "type": "address"
        },
        {
          "internalType": "string",
          "name": "userName",
          "type": "string"
        },
        {
          "internalType": "string",
          "name": "message",
          "type": "string"
        }
      ],
      "stateMutability": "view",
      "type": "function"
    },
    {
      "inputs": [
        {
          "internalType": "address",
          "name": "",
          "type": "address"
        }
      ],
      "name": "banks",
      "outputs": [
        {
          "internalType": "string",
          "name": "name",
          "type": "string"
        },
        {
          "internalType": "address",
          "name": "ethAddress",
          "type": "address"
        },
        {
          "internalType": "bool",
          "name": "isRegistered",
          "type": "bool"
        }
      ],
      "stateMutability": "view",
      "type": "function"
    },
    {
      "inputs": [
        {
          "internalType": "address",
          "name": "",
          "type": "address"
        },
        {
          "internalType": "address",
          "name": "",
          "type": "address"
        }
      ],
      "name": "customerBankAccess",
      "outputs": [
        {
          "internalType": "bool",
          "name": "",
          "type": "bool"
        }
      ],
      "stateMutability": "view",
      "type": "function"
    },
    {
      "inputs": [
        {
          "internalType": "address",
          "name": "",
          "type": "address"
        }
      ],
      "name": "customers",
      "outputs": [
        {
          "internalType": "string",
          "name": "userName",
          "type": "string"
        },
        {
          "internalType": "string",
          "name": "dataPayload",
          "type": "string"
        },
        {
          "internalType": "bool",
          "name": "isRegistered",
          "type": "bool"
        }
      ],
      "stateMutability": "view",
      "type": "function"
    },
    {
      "inputs": [],
      "name": "getAllBanks",
      "outputs": [
        {
          "components": [
            {
              "internalType": "string",
              "name": "name",
              "type": "string"
            },
            {
              "internalType": "address",
              "name": "ethAddress",
              "type": "address"
            },
            {
              "internalType": "bool",
              "name": "isRegistered",
              "type": "bool"
            }
          ],
          "internalType": "struct KYC.Bank[]",
          "name": "",
          "type": "tuple[]"
        }
      ],
      "stateMutability": "view",
      "type": "function"
    },
    {
      "inputs": [],
      "name": "getAllCustomers",
      "outputs": [
        {
          "components": [
            {
              "internalType": "string",
              "name": "userName",
              "type": "string"
            },
            {
              "internalType": "string",
              "name": "dataPayload",
              "type": "string"
            },
            {
              "internalType": "bool",
              "name": "isRegistered",
              "type": "bool"
            }
          ],
          "internalType": "struct KYC.Customer[]",
          "name": "",
          "type": "tuple[]"
        },
        {
          "internalType": "address[]",
          "name": "",
          "type": "address[]"
        }
      ],
      "stateMutability": "view",
      "type": "function"
    },
    {
      "inputs": [
        {
          "internalType": "address",
          "name": "_bankAddress",
          "type": "address"
        }
      ],
      "name": "getBankFeedbacks",
      "outputs": [
        {
          "components": [
            {
              "internalType": "address",
              "name": "customer",
              "type": "address"
            },
            {
              "internalType": "string",
              "name": "userName",
              "type": "string"
            },
            {
              "internalType": "string",
              "name": "message",
              "type": "string"
            }
          ],
          "internalType": "struct KYC.Feedback[]",
          "name": "",
          "type": "tuple[]"
        }
      ],
      "stateMutability": "view",
      "type": "function"
    },
    {
      "inputs": [
        {
          "internalType": "address",
          "name": "_customerAddress",
          "type": "address"
        },
        {
          "internalType": "address",
          "name": "_bankAddress",
          "type": "address"
        }
      ],
      "name": "getStatusWithBank",
      "outputs": [
        {
          "internalType": "string",
          "name": "",
          "type": "string"
        },
        {
          "internalType": "bool",
          "name": "",
          "type": "bool"
        }
      ],
      "stateMutability": "view",
      "type": "function"
    },
    {
      "inputs": [
        {
          "internalType": "address",
          "name": "_bankAddress",
          "type": "address"
        }
      ],
      "name": "grantAccess",
      "outputs": [],
      "stateMutability": "nonpayable",
      "type": "function"
    },
    {
      "inputs": [
        {
          "internalType": "string",
          "name": "_name",
          "type": "string"
        }
      ],
      "name": "registerBank",
      "outputs": [],
      "stateMutability": "nonpayable",
      "type": "function"
    },
    {
      "inputs": [
        {
          "internalType": "string",
          "name": "_userName",
          "type": "string"
        }
      ],
      "name": "registerCustomer",
      "outputs": [],
      "stateMutability": "nonpayable",
      "type": "function"
    },
    {
      "inputs": [
        {
          "internalType": "uint256",
          "name": "",
          "type": "uint256"
        }
      ],
      "name": "registeredBankAddresses",
      "outputs": [
        {
          "internalType": "address",
          "name": "",
          "type": "address"
        }
      ],
      "stateMutability": "view",
      "type": "function"
    },
    {
      "inputs": [
        {
          "internalType": "uint256",
          "name": "",
          "type": "uint256"
        }
      ],
      "name": "registeredCustomerAddresses",
      "outputs": [
        {
          "internalType": "address",
          "name": "",
          "type": "address"
        }
      ],
      "stateMutability": "view",
      "type": "function"
    },
    {
      "inputs": [
        {
          "internalType": "address",
          "name": "_customerAddress",
          "type": "address"
        }
      ],
      "name": "rejectKYC",
      "outputs": [],
      "stateMutability": "nonpayable",
      "type": "function"
    },
    {
      "inputs": [
        {
          "internalType": "address",
          "name": "_bankAddress",
          "type": "address"
        }
      ],
      "name": "revokeAccess",
      "outputs": [],
      "stateMutability": "nonpayable",
      "type": "function"
    },
    {
      "inputs": [
        {
          "internalType": "string",
          "name": "_dataPayload",
          "type": "string"
        }
      ],
      "name": "updateCustomerData",
      "outputs": [],
      "stateMutability": "nonpayable",
      "type": "function"
    },
    {
      "inputs": [
        {
          "internalType": "address",
          "name": "_customerAddress",
          "type": "address"
        }
      ],
      "name": "viewCustomerKYC",
      "outputs": [
        {
          "internalType": "string",
          "name": "",
          "type": "string"
        },
        {
          "internalType": "string",
          "name": "",
          "type": "string"
        },
        {
          "internalType": "string",
          "name": "",
          "type": "string"
        }
      ],
      "stateMutability": "view",
      "type": "function"
    }
  ],
  "bytecode": "0x608060405234801561001057600080fd5b50613e7a806100206000396000f3fe608060405234801561001057600080fd5b506004361061012c5760003560e01c806380c3b8c2116100ad578063b865c1c011610071578063b865c1c014610358578063c42e588814610388578063f4d050e3146103a4578063f8b0fd41146103d4578063fe37db13146104065761012c565b806380c3b8c2146102a057806385e68531146102d2578063951c8a07146102ee578063a70f17491461030c578063aecec9851461033c5761012c565b80634e42bbfd116100f45780634e42bbfd146101e757806354bff9db146102175780636ab5b965146102335780637da67ba81461024f5780638059bbb81461026e5761012c565b80630ae5e739146101315780630e27324d1461014d5780631378d80614610169578063331e049314610185578063336989ae146101b5575b600080fd5b61014b60048036038101906101469190612aa7565b610437565b005b61016760048036038101906101629190612aa7565b610705565b005b610183600480360381019061017e9190612c1a565b610981565b005b61019f600480360381019061019a9190612c63565b610c0f565b6040516101ac9190612cbe565b60405180910390f35b6101cf60048036038101906101ca9190612aa7565b610c3e565b6040516101de93929190612d58565b60405180910390f35b61020160048036038101906101fc9190612c63565b610d85565b60405161020e9190612d9d565b60405180910390f35b610231600480360381019061022c9190612c1a565b610e32565b005b61024d60048036038101906102489190612dbf565b610f14565b005b61025761120d565b60405161026592919061304b565b60405180910390f35b610288600480360381019061028391906130b8565b611504565b60405161029793929190613107565b60405180910390f35b6102ba60048036038101906102b59190612aa7565b61167b565b6040516102c99392919061314c565b60405180910390f35b6102ec60048036038101906102e79190612aa7565b61175a565b005b6102f661199a565b604051610303919061329c565b60405180910390f35b61032660048036038101906103219190612aa7565b611bc6565b60405161033391906133d7565b60405180910390f35b61035660048036038101906103519190612c1a565b611e6c565b005b610372600480360381019061036d91906133f9565b612131565b60405161037f9190613426565b60405180910390f35b6103a2600480360381019061039d9190612aa7565b612170565b005b6103be60048036038101906103b991906133f9565b6123ec565b6040516103cb9190613426565b60405180910390f35b6103ee60048036038101906103e99190612aa7565b61242b565b6040516103fd93929190613441565b60405180910390f35b610420600480360381019061041b9190612c63565b612838565b60405161042e92919061348d565b60405180910390f35b600160003373ffffffffffffffffffffffffffffffffffffffff1673ffffffffffffffffffffffffffffffffffffffff16815260200190815260200160002060020160009054906101000a900460ff166104c6576040517f08c379a00000000000000000000000000000000000000000000000000000000081526004016104bd90613509565b60405180910390fd5b6000808273ffffffffffffffffffffffffffffffffffffffff1673ffffffffffffffffffffffffffffffffffffffff16815260200190815260200160002060010160149054906101000a900460ff16610554576040517f08c379a000000000000000000000000000000000000000000000000000000000815260040161054b90613575565b60405180910390fd5b6001600460003373ffffffffffffffffffffffffffffffffffffffff1673ffffffffffffffffffffffffffffffffffffffff16815260200190815260200160002060008373ffffffffffffffffffffffffffffffffffffffff1673ffffffffffffffffffffffffffffffffffffffff16815260200190815260200160002060006101000a81548160ff0219169083151502179055506040518060400160405280600781526020017f50656e64696e6700000000000000000000000000000000000000000000000000815250600560008373ffffffffffffffffffffffffffffffffffffffff1673ffffffffffffffffffffffffffffffffffffffff16815260200190815260200160002060003373ffffffffffffffffffffffffffffffffffffffff1673ffffffffffffffffffffffffffffffffffffffff16815260200190815260200160002090816106a791906137a1565b508073ffffffffffffffffffffffffffffffffffffffff163373ffffffffffffffffffffffffffffffffffffffff167f9f520b3bfc56d06f7065d10b4683b3f57ac8895d5026cd176dee95ce1454cb8d60405160405180910390a350565b6000803373ffffffffffffffffffffffffffffffffffffffff1673ffffffffffffffffffffffffffffffffffffffff16815260200190815260200160002060010160149054906101000a900460ff16610793576040517f08c379a000000000000000000000000000000000000000000000000000000000815260040161078a906138bf565b60405180910390fd5b600460008273ffffffffffffffffffffffffffffffffffffffff1673ffffffffffffffffffffffffffffffffffffffff16815260200190815260200160002060003373ffffffffffffffffffffffffffffffffffffffff1673ffffffffffffffffffffffffffffffffffffffff16815260200190815260200160002060009054906101000a900460ff1661085c576040517f08c379a00000000000000000000000000000000000000000000000000000000081526004016108539061392b565b60405180910390fd5b6040518060400160405280600881526020017f417070726f766564000000000000000000000000000000000000000000000000815250600560003373ffffffffffffffffffffffffffffffffffffffff1673ffffffffffffffffffffffffffffffffffffffff16815260200190815260200160002060008373ffffffffffffffffffffffffffffffffffffffff1673ffffffffffffffffffffffffffffffffffffffff168152602001908152602001600020908161091a91906137a1565b503373ffffffffffffffffffffffffffffffffffffffff168173ffffffffffffffffffffffffffffffffffffffff167fc7c5af31150091ef812afcddd1e5ff07bbd87d8ec31cb88b94e533f5d4678c8f60405161097690613997565b60405180910390a350565b600160003373ffffffffffffffffffffffffffffffffffffffff1673ffffffffffffffffffffffffffffffffffffffff16815260200190815260200160002060020160009054906101000a900460ff1615610a11576040517f08c379a0000000000000000000000000000000000000000000000000000000008152600401610a0890613a03565b60405180910390fd5b6000803373ffffffffffffffffffffffffffffffffffffffff1673ffffffffffffffffffffffffffffffffffffffff16815260200190815260200160002060010160149054906101000a900460ff1615610aa0576040517f08c379a0000000000000000000000000000000000000000000000000000000008152600401610a9790613a6f565b60405180910390fd5b604051806060016040528082815260200160405180602001604052806000815250815260200160011515815250600160003373ffffffffffffffffffffffffffffffffffffffff1673ffffffffffffffffffffffffffffffffffffffff1681526020019081526020016000206000820151816000019081610b2191906137a1565b506020820151816001019081610b3791906137a1565b5060408201518160020160006101000a81548160ff0219169083151502179055509050506003339080600181540180825580915050600190039060005260206000200160009091909190916101000a81548173ffffffffffffffffffffffffffffffffffffffff021916908373ffffffffffffffffffffffffffffffffffffffff1602179055503373ffffffffffffffffffffffffffffffffffffffff167f2bf7863d4068dda3123298d02ee28530519d2e96eaab6784f5f0b6184ddd201582604051610c049190612d9d565b60405180910390a250565b60046020528160005260406000206020528060005260406000206000915091509054906101000a900460ff1681565b6001602052806000526040600020600091509050806000018054610c61906135c4565b80601f0160208091040260200160405190810160405280929190818152602001828054610c8d906135c4565b8015610cda5780601f10610caf57610100808354040283529160200191610cda565b820191906000526020600020905b815481529060010190602001808311610cbd57829003601f168201915b505050505090806001018054610cef906135c4565b80601f0160208091040260200160405190810160405280929190818152602001828054610d1b906135c4565b8015610d685780601f10610d3d57610100808354040283529160200191610d68565b820191906000526020600020905b815481529060010190602001808311610d4b57829003601f168201915b5050505050908060020160009054906101000a900460ff16905083565b6005602052816000526040600020602052806000526040600020600091509150508054610db1906135c4565b80601f0160208091040260200160405190810160405280929190818152602001828054610ddd906135c4565b8015610e2a5780601f10610dff57610100808354040283529160200191610e2a565b820191906000526020600020905b815481529060010190602001808311610e0d57829003601f168201915b505050505081565b600160003373ffffffffffffffffffffffffffffffffffffffff1673ffffffffffffffffffffffffffffffffffffffff16815260200190815260200160002060020160009054906101000a900460ff16610ec1576040517f08c379a0000000000000000000000000000000000000000000000000000000008152600401610eb890613509565b60405180910390fd5b80600160003373ffffffffffffffffffffffffffffffffffffffff1673ffffffffffffffffffffffffffffffffffffffff1681526020019081526020016000206001019081610f1091906137a1565b5050565b600160003373ffffffffffffffffffffffffffffffffffffffff1673ffffffffffffffffffffffffffffffffffffffff16815260200190815260200160002060020160009054906101000a900460ff16610fa3576040517f08c379a0000000000000000000000000000000000000000000000000000000008152600401610f9a90613b01565b60405180910390fd5b6000808373ffffffffffffffffffffffffffffffffffffffff1673ffffffffffffffffffffffffffffffffffffffff16815260200190815260200160002060010160149054906101000a900460ff16611031576040517f08c379a000000000000000000000000000000000000000000000000000000000815260040161102890613b6d565b60405180910390fd5b600660008373ffffffffffffffffffffffffffffffffffffffff1673ffffffffffffffffffffffffffffffffffffffff16815260200190815260200160002060405180606001604052803373ffffffffffffffffffffffffffffffffffffffff168152602001600160003373ffffffffffffffffffffffffffffffffffffffff1673ffffffffffffffffffffffffffffffffffffffff16815260200190815260200160002060000180546110e4906135c4565b80601f0160208091040260200160405190810160405280929190818152602001828054611110906135c4565b801561115d5780601f106111325761010080835404028352916020019161115d565b820191906000526020600020905b81548152906001019060200180831161114057829003601f168201915b5050505050815260200183815250908060018154018082558091505060019003906000526020600020906003020160009091909190915060008201518160000160006101000a81548173ffffffffffffffffffffffffffffffffffffffff021916908373ffffffffffffffffffffffffffffffffffffffff16021790555060208201518160010190816111f091906137a1565b50604082015181600201908161120691906137a1565b5050505050565b606080600060038054905067ffffffffffffffff81111561123157611230612aef565b5b60405190808252806020026020018201604052801561126a57816020015b6112576129d9565b81526020019060019003908161124f5790505b50905060005b60038054905081101561146f57600160006003838154811061129557611294613b8d565b5b9060005260206000200160009054906101000a900473ffffffffffffffffffffffffffffffffffffffff1673ffffffffffffffffffffffffffffffffffffffff1673ffffffffffffffffffffffffffffffffffffffff168152602001908152602001600020604051806060016040529081600082018054611315906135c4565b80601f0160208091040260200160405190810160405280929190818152602001828054611341906135c4565b801561138e5780601f106113635761010080835404028352916020019161138e565b820191906000526020600020905b81548152906001019060200180831161137157829003601f168201915b505050505081526020016001820180546113a7906135c4565b80601f01602080910402602001604051908101604052809291908181526020018280546113d3906135c4565b80156114205780601f106113f557610100808354040283529160200191611420565b820191906000526020600020905b81548152906001019060200180831161140357829003601f168201915b505050505081526020016002820160009054906101000a900460ff16151515158152505082828151811061145757611456613b8d565b5b60200260200101819052508080600101915050611270565b50806003808054806020026020016040519081016040528092919081815260200182805480156114f457602002820191906000526020600020905b8160009054906101000a900473ffffffffffffffffffffffffffffffffffffffff1673ffffffffffffffffffffffffffffffffffffffff16815260200190600101908083116114aa575b5050505050905092509250509091565b6006602052816000526040600020818154811061152057600080fd5b9060005260206000209060030201600091509150508060000160009054906101000a900473ffffffffffffffffffffffffffffffffffffffff169080600101805461156a906135c4565b80601f0160208091040260200160405190810160405280929190818152602001828054611596906135c4565b80156115e35780601f106115b8576101008083540402835291602001916115e3565b820191906000526020600020905b8154815290600101906020018083116115c657829003601f168201915b5050505050908060020180546115f8906135c4565b80601f0160208091040260200160405190810160405280929190818152602001828054611624906135c4565b80156116715780601f1061164657610100808354040283529160200191611671565b820191906000526020600020905b81548152906001019060200180831161165457829003601f168201915b5050505050905083565b600060205280600052604060002060009150905080600001805461169e906135c4565b80601f01602080910402602001604051908101604052809291908181526020018280546116ca906135c4565b80156117175780601f106116ec57610100808354040283529160200191611717565b820191906000526020600020905b8154815290600101906020018083116116fa57829003601f168201915b5050505050908060010160009054906101000a900473ffffffffffffffffffffffffffffffffffffffff16908060010160149054906101000a900460ff16905083565b600160003373ffffffffffffffffffffffffffffffffffffffff1673ffffffffffffffffffffffffffffffffffffffff16815260200190815260200160002060020160009054906101000a900460ff166117e9576040517f08c379a00000000000000000000000000000000000000000000000000000000081526004016117e090613509565b60405180910390fd5b6000600460003373ffffffffffffffffffffffffffffffffffffffff1673ffffffffffffffffffffffffffffffffffffffff16815260200190815260200160002060008373ffffffffffffffffffffffffffffffffffffffff1673ffffffffffffffffffffffffffffffffffffffff16815260200190815260200160002060006101000a81548160ff0219169083151502179055506040518060400160405280600481526020017f4e6f6e6500000000000000000000000000000000000000000000000000000000815250600560008373ffffffffffffffffffffffffffffffffffffffff1673ffffffffffffffffffffffffffffffffffffffff16815260200190815260200160002060003373ffffffffffffffffffffffffffffffffffffffff1673ffffffffffffffffffffffffffffffffffffffff168152602001908152602001600020908161193c91906137a1565b508073ffffffffffffffffffffffffffffffffffffffff163373ffffffffffffffffffffffffffffffffffffffff167f825c8be24eb0df19500f63e86c29e7d0d951e73056b889b891d85e40938d9b6e60405160405180910390a350565b6060600060028054905067ffffffffffffffff8111156119bd576119bc612aef565b5b6040519080825280602002602001820160405280156119f657816020015b6119e36129fc565b8152602001906001900390816119db5790505b50905060005b600280549050811015611bbe5760008060028381548110611a2057611a1f613b8d565b5b9060005260206000200160009054906101000a900473ffffffffffffffffffffffffffffffffffffffff1673ffffffffffffffffffffffffffffffffffffffff1673ffffffffffffffffffffffffffffffffffffffff168152602001908152602001600020604051806060016040529081600082018054611aa0906135c4565b80601f0160208091040260200160405190810160405280929190818152602001828054611acc906135c4565b8015611b195780601f10611aee57610100808354040283529160200191611b19565b820191906000526020600020905b815481529060010190602001808311611afc57829003601f168201915b505050505081526020016001820160009054906101000a900473ffffffffffffffffffffffffffffffffffffffff1673ffffffffffffffffffffffffffffffffffffffff1673ffffffffffffffffffffffffffffffffffffffff1681526020016001820160149054906101000a900460ff161515151581525050828281518110611ba657611ba5613b8d565b5b602002602001018190525080806001019150506119fc565b508091505090565b60606000808373ffffffffffffffffffffffffffffffffffffffff1673ffffffffffffffffffffffffffffffffffffffff16815260200190815260200160002060010160149054906101000a900460ff16611c56576040517f08c379a0000000000000000000000000000000000000000000000000000000008152600401611c4d90613b6d565b60405180910390fd5b600660008373ffffffffffffffffffffffffffffffffffffffff1673ffffffffffffffffffffffffffffffffffffffff168152602001908152602001600020805480602002602001604051908101604052809291908181526020016000905b82821015611e6157838290600052602060002090600302016040518060600160405290816000820160009054906101000a900473ffffffffffffffffffffffffffffffffffffffff1673ffffffffffffffffffffffffffffffffffffffff1673ffffffffffffffffffffffffffffffffffffffff168152602001600182018054611d3e906135c4565b80601f0160208091040260200160405190810160405280929190818152602001828054611d6a906135c4565b8015611db75780601f10611d8c57610100808354040283529160200191611db7565b820191906000526020600020905b815481529060010190602001808311611d9a57829003601f168201915b50505050508152602001600282018054611dd0906135c4565b80601f0160208091040260200160405190810160405280929190818152602001828054611dfc906135c4565b8015611e495780601f10611e1e57610100808354040283529160200191611e49565b820191906000526020600020905b815481529060010190602001808311611e2c57829003601f168201915b50505050508152505081526020019060010190611cb5565b505050509050919050565b6000803373ffffffffffffffffffffffffffffffffffffffff1673ffffffffffffffffffffffffffffffffffffffff16815260200190815260200160002060010160149054906101000a900460ff1615611efb576040517f08c379a0000000000000000000000000000000000000000000000000000000008152600401611ef290613c08565b60405180910390fd5b600160003373ffffffffffffffffffffffffffffffffffffffff1673ffffffffffffffffffffffffffffffffffffffff16815260200190815260200160002060020160009054906101000a900460ff1615611f8b576040517f08c379a0000000000000000000000000000000000000000000000000000000008152600401611f8290613c74565b60405180910390fd5b60405180606001604052808281526020013373ffffffffffffffffffffffffffffffffffffffff168152602001600115158152506000803373ffffffffffffffffffffffffffffffffffffffff1673ffffffffffffffffffffffffffffffffffffffff168152602001908152602001600020600082015181600001908161201291906137a1565b5060208201518160010160006101000a81548173ffffffffffffffffffffffffffffffffffffffff021916908373ffffffffffffffffffffffffffffffffffffffff16021790555060408201518160010160146101000a81548160ff0219169083151502179055509050506002339080600181540180825580915050600190039060005260206000200160009091909190916101000a81548173ffffffffffffffffffffffffffffffffffffffff021916908373ffffffffffffffffffffffffffffffffffffffff1602179055503373ffffffffffffffffffffffffffffffffffffffff167f3d39b9dc3cc28f0852c205a5818a351f20e13393f499c9a7ce42faee19843ac3826040516121269190612d9d565b60405180910390a250565b6002818154811061214157600080fd5b906000526020600020016000915054906101000a900473ffffffffffffffffffffffffffffffffffffffff1681565b6000803373ffffffffffffffffffffffffffffffffffffffff1673ffffffffffffffffffffffffffffffffffffffff16815260200190815260200160002060010160149054906101000a900460ff166121fe576040517f08c379a00000000000000000000000000000000000000000000000000000000081526004016121f590613ce0565b60405180910390fd5b600460008273ffffffffffffffffffffffffffffffffffffffff1673ffffffffffffffffffffffffffffffffffffffff16815260200190815260200160002060003373ffffffffffffffffffffffffffffffffffffffff1673ffffffffffffffffffffffffffffffffffffffff16815260200190815260200160002060009054906101000a900460ff166122c7576040517f08c379a00000000000000000000000000000000000000000000000000000000081526004016122be9061392b565b60405180910390fd5b6040518060400160405280600881526020017f52656a6563746564000000000000000000000000000000000000000000000000815250600560003373ffffffffffffffffffffffffffffffffffffffff1673ffffffffffffffffffffffffffffffffffffffff16815260200190815260200160002060008373ffffffffffffffffffffffffffffffffffffffff1673ffffffffffffffffffffffffffffffffffffffff168152602001908152602001600020908161238591906137a1565b503373ffffffffffffffffffffffffffffffffffffffff168173ffffffffffffffffffffffffffffffffffffffff167fc7c5af31150091ef812afcddd1e5ff07bbd87d8ec31cb88b94e533f5d4678c8f6040516123e190613d4c565b60405180910390a350565b600381815481106123fc57600080fd5b906000526020600020016000915054906101000a900473ffffffffffffffffffffffffffffffffffffffff1681565b60608060606000803373ffffffffffffffffffffffffffffffffffffffff1673ffffffffffffffffffffffffffffffffffffffff16815260200190815260200160002060010160149054906101000a900460ff166124be576040517f08c379a00000000000000000000000000000000000000000000000000000000081526004016124b590613db8565b60405180910390fd5b600460008573ffffffffffffffffffffffffffffffffffffffff1673ffffffffffffffffffffffffffffffffffffffff16815260200190815260200160002060003373ffffffffffffffffffffffffffffffffffffffff1673ffffffffffffffffffffffffffffffffffffffff16815260200190815260200160002060009054906101000a900460ff16612587576040517f08c379a000000000000000000000000000000000000000000000000000000000815260040161257e90613e24565b60405180910390fd5b600160008573ffffffffffffffffffffffffffffffffffffffff1673ffffffffffffffffffffffffffffffffffffffff168152602001908152602001600020600001600160008673ffffffffffffffffffffffffffffffffffffffff1673ffffffffffffffffffffffffffffffffffffffff168152602001908152602001600020600101600560003373ffffffffffffffffffffffffffffffffffffffff1673ffffffffffffffffffffffffffffffffffffffff16815260200190815260200160002060008773ffffffffffffffffffffffffffffffffffffffff1673ffffffffffffffffffffffffffffffffffffffff168152602001908152602001600020828054612693906135c4565b80601f01602080910402602001604051908101604052809291908181526020018280546126bf906135c4565b801561270c5780601f106126e15761010080835404028352916020019161270c565b820191906000526020600020905b8154815290600101906020018083116126ef57829003601f168201915b5050505050925081805461271f906135c4565b80601f016020809104026020016040519081016040528092919081815260200182805461274b906135c4565b80156127985780601f1061276d57610100808354040283529160200191612798565b820191906000526020600020905b81548152906001019060200180831161277b57829003601f168201915b505050505091508080546127ab906135c4565b80601f01602080910402602001604051908101604052809291908181526020018280546127d7906135c4565b80156128245780601f106127f957610100808354040283529160200191612824565b820191906000526020600020905b81548152906001019060200180831161280757829003601f168201915b505050505090509250925092509193909250565b60606000600560008473ffffffffffffffffffffffffffffffffffffffff1673ffffffffffffffffffffffffffffffffffffffff16815260200190815260200160002060008573ffffffffffffffffffffffffffffffffffffffff1673ffffffffffffffffffffffffffffffffffffffff168152602001908152602001600020600460008673ffffffffffffffffffffffffffffffffffffffff1673ffffffffffffffffffffffffffffffffffffffff16815260200190815260200160002060008573ffffffffffffffffffffffffffffffffffffffff1673ffffffffffffffffffffffffffffffffffffffff16815260200190815260200160002060009054906101000a900460ff1681805461294e906135c4565b80601f016020809104026020016040519081016040528092919081815260200182805461297a906135c4565b80156129c75780601f1061299c576101008083540402835291602001916129c7565b820191906000526020600020905b8154815290600101906020018083116129aa57829003601f168201915b50505050509150915091509250929050565b604051806060016040528060608152602001606081526020016000151581525090565b604051806060016040528060608152602001600073ffffffffffffffffffffffffffffffffffffffff1681526020016000151581525090565b6000604051905090565b600080fd5b600080fd5b600073ffffffffffffffffffffffffffffffffffffffff82169050919050565b6000612a7482612a49565b9050919050565b612a8481612a69565b8114612a8f57600080fd5b50565b600081359050612aa181612a7b565b92915050565b600060208284031215612abd57612abc612a3f565b5b6000612acb84828501612a92565b91505092915050565b600080fd5b600080fd5b6000601f19601f8301169050919050565b7f4e487b7100000000000000000000000000000000000000000000000000000000600052604160045260246000fd5b612b2782612ade565b810181811067ffffffffffffffff82111715612b4657612b45612aef565b5b80604052505050565b6000612b59612a35565b9050612b658282612b1e565b919050565b600067ffffffffffffffff821115612b8557612b84612aef565b5b612b8e82612ade565b9050602081019050919050565b82818337600083830152505050565b6000612bbd612bb884612b6a565b612b4f565b905082815260208101848484011115612bd957612bd8612ad9565b5b612be4848285612b9b565b509392505050565b600082601f830112612c0157612c00612ad4565b5b8135612c11848260208601612baa565b91505092915050565b600060208284031215612c3057612c2f612a3f565b5b600082013567ffffffffffffffff811115612c4e57612c4d612a44565b5b612c5a84828501612bec565b91505092915050565b60008060408385031215612c7a57612c79612a3f565b5b6000612c8885828601612a92565b9250506020612c9985828601612a92565b9150509250929050565b60008115159050919050565b612cb881612ca3565b82525050565b6000602082019050612cd36000830184612caf565b92915050565b600081519050919050565b600082825260208201905092915050565b60005b83811015612d13578082015181840152602081019050612cf8565b60008484015250505050565b6000612d2a82612cd9565b612d348185612ce4565b9350612d44818560208601612cf5565b612d4d81612ade565b840191505092915050565b60006060820190508181036000830152612d728186612d1f565b90508181036020830152612d868185612d1f565b9050612d956040830184612caf565b949350505050565b60006020820190508181036000830152612db78184612d1f565b905092915050565b60008060408385031215612dd657612dd5612a3f565b5b6000612de485828601612a92565b925050602083013567ffffffffffffffff811115612e0557612e04612a44565b5b612e1185828601612bec565b9150509250929050565b600081519050919050565b600082825260208201905092915050565b6000819050602082019050919050565b600082825260208201905092915050565b6000612e6382612cd9565b612e6d8185612e47565b9350612e7d818560208601612cf5565b612e8681612ade565b840191505092915050565b612e9a81612ca3565b82525050565b60006060830160008301518482036000860152612ebd8282612e58565b91505060208301518482036020860152612ed78282612e58565b9150506040830151612eec6040860182612e91565b508091505092915050565b6000612f038383612ea0565b905092915050565b6000602082019050919050565b6000612f2382612e1b565b612f2d8185612e26565b935083602082028501612f3f85612e37565b8060005b85811015612f7b5784840389528151612f5c8582612ef7565b9450612f6783612f0b565b925060208a01995050600181019050612f43565b50829750879550505050505092915050565b600081519050919050565b600082825260208201905092915050565b6000819050602082019050919050565b612fc281612a69565b82525050565b6000612fd48383612fb9565b60208301905092915050565b6000602082019050919050565b6000612ff882612f8d565b6130028185612f98565b935061300d83612fa9565b8060005b8381101561303e5781516130258882612fc8565b975061303083612fe0565b925050600181019050613011565b5085935050505092915050565b600060408201905081810360008301526130658185612f18565b905081810360208301526130798184612fed565b90509392505050565b6000819050919050565b61309581613082565b81146130a057600080fd5b50565b6000813590506130b28161308c565b92915050565b600080604083850312156130cf576130ce612a3f565b5b60006130dd85828601612a92565b92505060206130ee858286016130a3565b9150509250929050565b61310181612a69565b82525050565b600060608201905061311c60008301866130f8565b818103602083015261312e8185612d1f565b905081810360408301526131428184612d1f565b9050949350505050565b600060608201905081810360008301526131668186612d1f565b905061317560208301856130f8565b6131826040830184612caf565b949350505050565b600081519050919050565b600082825260208201905092915050565b6000819050602082019050919050565b600060608301600083015184820360008601526131d38282612e58565b91505060208301516131e86020860182612fb9565b5060408301516131fb6040860182612e91565b508091505092915050565b600061321283836131b6565b905092915050565b6000602082019050919050565b60006132328261318a565b61323c8185613195565b93508360208202850161324e856131a6565b8060005b8581101561328a578484038952815161326b8582613206565b94506132768361321a565b925060208a01995050600181019050613252565b50829750879550505050505092915050565b600060208201905081810360008301526132b68184613227565b905092915050565b600081519050919050565b600082825260208201905092915050565b6000819050602082019050919050565b60006060830160008301516133026000860182612fb9565b506020830151848203602086015261331a8282612e58565b915050604083015184820360408601526133348282612e58565b9150508091505092915050565b600061334d83836132ea565b905092915050565b6000602082019050919050565b600061336d826132be565b61337781856132c9565b935083602082028501613389856132da565b8060005b858110156133c557848403895281516133a68582613341565b94506133b183613355565b925060208a0199505060018101905061338d565b50829750879550505050505092915050565b600060208201905081810360008301526133f18184613362565b905092915050565b60006020828403121561340f5761340e612a3f565b5b600061341d848285016130a3565b91505092915050565b600060208201905061343b60008301846130f8565b92915050565b6000606082019050818103600083015261345b8186612d1f565b9050818103602083015261346f8185612d1f565b905081810360408301526134838184612d1f565b9050949350505050565b600060408201905081810360008301526134a78185612d1f565b90506134b66020830184612caf565b9392505050565b7f437573746f6d6572206e6f742072656769737465726564000000000000000000600082015250565b60006134f3601783612ce4565b91506134fe826134bd565b602082019050919050565b60006020820190508181036000830152613522816134e6565b9050919050565b7f5461726765742062616e6b206973206e6f742072656769737465726564000000600082015250565b600061355f601d83612ce4565b915061356a82613529565b602082019050919050565b6000602082019050818103600083015261358e81613552565b9050919050565b7f4e487b7100000000000000000000000000000000000000000000000000000000600052602260045260246000fd5b600060028204905060018216806135dc57607f821691505b6020821081036135ef576135ee613595565b5b50919050565b60008190508160005260206000209050919050565b60006020601f8301049050919050565b600082821b905092915050565b6000600883026136577fffffffffffffffffffffffffffffffffffffffffffffffffffffffffffffffff8261361a565b613661868361361a565b95508019841693508086168417925050509392505050565b6000819050919050565b600061369e61369961369484613082565b613679565b613082565b9050919050565b6000819050919050565b6136b883613683565b6136cc6136c4826136a5565b848454613627565b825550505050565b600090565b6136e16136d4565b6136ec8184846136af565b505050565b5b81811015613710576137056000826136d9565b6001810190506136f2565b5050565b601f82111561375557613726816135f5565b61372f8461360a565b8101602085101561373e578190505b61375261374a8561360a565b8301826136f1565b50505b505050565b600082821c905092915050565b60006137786000198460080261375a565b1980831691505092915050565b60006137918383613767565b9150826002028217905092915050565b6137aa82612cd9565b67ffffffffffffffff8111156137c3576137c2612aef565b5b6137cd82546135c4565b6137d8828285613714565b600060209050601f83116001811461380b57600084156137f9578287015190505b6138038582613785565b86555061386b565b601f198416613819866135f5565b60005b828110156138415784890151825560018201915060208501945060208101905061381c565b8683101561385e578489015161385a601f891682613767565b8355505b6001600288020188555050505b505050505050565b7f4f6e6c792062616e6b732063616e20617070726f766500000000000000000000600082015250565b60006138a9601683612ce4565b91506138b482613873565b602082019050919050565b600060208201905081810360008301526138d88161389c565b9050919050565b7f4163636573732044656e69656400000000000000000000000000000000000000600082015250565b6000613915600d83612ce4565b9150613920826138df565b602082019050919050565b6000602082019050818103600083015261394481613908565b9050919050565b7f417070726f766564000000000000000000000000000000000000000000000000600082015250565b6000613981600883612ce4565b915061398c8261394b565b602082019050919050565b600060208201905081810360008301526139b081613974565b9050919050565b7f437573746f6d657220616c726561647920657869737473000000000000000000600082015250565b60006139ed601783612ce4565b91506139f8826139b7565b602082019050919050565b60006020820190508181036000830152613a1c816139e0565b9050919050565b7f42616e6b732063616e6e6f7420626520637573746f6d65727300000000000000600082015250565b6000613a59601983612ce4565b9150613a6482613a23565b602082019050919050565b60006020820190508181036000830152613a8881613a4c565b9050919050565b7f4f6e6c79207265676973746572656420637573746f6d6572732063616e206c6560008201527f61766520666565646261636b0000000000000000000000000000000000000000602082015250565b6000613aeb602c83612ce4565b9150613af682613a8f565b604082019050919050565b60006020820190508181036000830152613b1a81613ade565b9050919050565b7f42616e6b206973206e6f74207265676973746572656400000000000000000000600082015250565b6000613b57601683612ce4565b9150613b6282613b21565b602082019050919050565b60006020820190508181036000830152613b8681613b4a565b9050919050565b7f4e487b7100000000000000000000000000000000000000000000000000000000600052603260045260246000fd5b7f42616e6b20616c72656164792065786973747300000000000000000000000000600082015250565b6000613bf2601383612ce4565b9150613bfd82613bbc565b602082019050919050565b60006020820190508181036000830152613c2181613be5565b9050919050565b7f437573746f6d6572732063616e6e6f742062652062616e6b7300000000000000600082015250565b6000613c5e601983612ce4565b9150613c6982613c28565b602082019050919050565b60006020820190508181036000830152613c8d81613c51565b9050919050565b7f4f6e6c792062616e6b732063616e2072656a6563740000000000000000000000600082015250565b6000613cca601583612ce4565b9150613cd582613c94565b602082019050919050565b60006020820190508181036000830152613cf981613cbd565b9050919050565b7f52656a6563746564000000000000000000000000000000000000000000000000600082015250565b6000613d36600883612ce4565b9150613d4182613d00565b602082019050919050565b60006020820190508181036000830152613d6581613d29565b9050919050565b7f4f6e6c792062616e6b732063616e207669657700000000000000000000000000600082015250565b6000613da2601383612ce4565b9150613dad82613d6c565b602082019050919050565b60006020820190508181036000830152613dd181613d95565b9050919050565b7f4163636573732044656e69656420627920437573746f6d657200000000000000600082015250565b6000613e0e601983612ce4565b9150613e1982613dd8565b602082019050919050565b60006020820190508181036000830152613e3d81613e01565b905091905056fea26469706673582212203afada17f6f4a28311f97ccfa83b4a5649a65a68a72b9a88850ba40b4b63cc4e64736f6c63430008180033",
  "linkReferences": {},
  "deployedLinkReferences": {}
}